:10000000707E0010150100006116000071160000DE
:1000100000000000000000000000000000000000E0
:100020000000000000000000000000007D01000052
:1000300000000000000000007D0100007D010000C4
:100040007D0100007D0100007D0100007D010000B8
:100050007D0100007D0100007D0100007D010000A8
:100060007D0100007D0100007D0100007D01000098
:100070007D0100007D0100007D0100007D01000088
:100080007D0100007D0100007D0100007D01000078
:100090007D010000A11700007D0100007D0100002E
:1000A0007D0100007D0100007D0100007D01000058
:1000B0007D0100007D0100007D01000000000000C6
:10010000C02200000078001004780010047800106D
:10011000707A001011488546002103E0104B5B58AF
:10012000435004310F48104B42189A42F6D30F4AFD
:1001300002E00023136004320D4B9A42F9D301F020
:1001400021FC00F027F9FEE70A49401A002800DCEC
:1001500070470949401A0028FCDC7047707E001087
:10016000C02200000078001004780010047800100D
:10017000707A00103200000054000000FEE700001A
:100180004F2070B5084D2C002500013400F04AFFC7
:1001900020780028F8D10A3000F044FF607802355A
:1001A0000028F0D170BDC046881C000070B50C005E
:1001B0000D682000802100F075FC2368AB4211D04F
:1001C00004000A4D00F020FD01F03AFA280001F089
:1001D00069FCA04701F034FA054801F063FC01F026
:1001E00037FA70BD014D6C68ECE7C04600000010A6
:1001F00000000000F0B56122DE4657464E464546F7
:10020000554BE0B51A54002398469B469A46534BEB
:100210000400994683B0200000F080FC01202100FA
:10022000404200F089FC00900028F7D0431C009366
:100230000378532BEFD102300190022101A800F086
:1002400031FC00260500019B023B0193022101A81D
:1002500000F028FC3618013DF8D5013EF6B2FD2E1F
:1002600007D84B461B5DC246002B02D14B46F122FC
:100270001A55009B02215A1C009268461D7800F016
:1002800011FC0700312D57D0322D0CD0332D41D029
:10029000372D23D0382D49D0392D51D0373D022D5F
:1002A000B9D800251FE0032606217642684600F0F3
:1002B000F9FB5B468046002B36D0013FF619002E35
:1002C000ECDD070086190221684600F0EBFB3B00DD
:1002D00001371870B742F6D1B846DFE70421684607
:1002E00000F0E0FB050059461D4801F019F94146B0
:1002F0001C4801F015F929001B4801F011F94B4683
:100300001B5D002B22D103B0F0BCBB46B246A94610
:10031000A046F0BD0821684600F0C4FB04265B46F9
:1003200080467642002BC8D18346C6E70621684640
:1003300000F0B8FB0500D6E7022604217642B5E7B7
:100340000821684600F0AEFB0500CCE7514607489F
:1003500001F0E6F8D7E7C0460C78001018780010D6
:10036000301C0000481C0000601C0000781C0000CD
:100370007047C0467047C04610B5040000F062F8F0
:100380000022034B20001A5500F0C8FB10BDC046E8
:100390001878001010B5114801F084FBFFF7E8FF52
:1003A000002000F033FC80230D4A5B0513600D4AEA
:1003B000136061220C4B1A70FFF7DCFF01F048F963
:1003C0000A4800F07FFE0A4800F018FE0020FFF700
:1003D000D3FF002000F05CFAFBE7C04600000000FD
:1003E00014780010087800100C78001004780010C1
:1003F000881C0000F8B50C0006000800150000F08D
:1004000075FB80212000276800F04CFB28602368E2
:10041000BB420ED0200000F069FB8021200025683F
:1004200000F040FB23689D4200D0F8BD80204000D2
:10043000FBE78020024BB600F35840002B60F4E746
:100440000878001010B5144A0100131818796528AF
:100450000CD11B7A012B10D08900042B15D0511818
:10046000C9680E480A8801F05BF810BD0C4801F01D
:1004700057F83A2000F0D6FDF7E78B00D318D9687B
:1004800008480A7801F04CF8EFE75218D16806489E
:100490000A6801F045F8E8E708780010EC1E000053
:1004A000CC1E0000D01E0000DC1E000070B50C0049
:1004B0000E6805008021200000F0F4FA2368B342A2
:1004C00009D0074BA900652259185B191A71643AC3
:1004D000C8601A7270BD024BA9005A18D068F2E7C2
:1004E0000878001070B50C000E680500802120000F
:1004F00000F0D8FA2368B34209D0074BA90065225F
:1005000059185B191A71633AC8601A7270BD024BB0
:10051000A9005A18D068F2E70878001070B50C00EE
:100520000E6805008021200000F0BCFA2368B34269
:1005300009D0074BA900652259185B191A71613A55
:10054000C8601A7270BD024BA9005A18D068F2E751
:1005500008780010F0B5DE464E4645465746E0B5F1
:1005600085B003AA8046FFF745FF8146002800DCDE
:1005700082E043460399424A9B00D1500F230B402F
:100580009A46404B01929B460F243F48A14300F0FE
:10059000C7FF5346590051442020013100F0B2FA00
:1005A000524610239B1A00934B46A51A5C1E260048
:1005B000039F4446B0460FE02021200000F0BEFB20
:1005C0005846397800F0ACFF3300002D17D00137C2
:1005D000013D013E002B12D0072DEDD1731C994532
:1005E00036D02D21200000F0A9FB3978584600F0C4
:1005F00097FF01373300013D013E002BECD15146FE
:10060000434620200231A0461C0000F07BFA4B46F6
:10061000009A46469D1A02E0002C1BD0013C039B29
:100620005A1C039219780B00203B5E2B00D92E2117
:10063000300000F083FBAC42EED10A20A146B04668
:1006400000F0F0FC002D09D0002303999A469BE7A7
:100650002021C7E70A20B04600F0E4FC019B434498
:10066000180064230371633B037205B0F0BCBB4602
:10067000B246A946A046F0BD014B0193EEE7C04645
:1006800008780010001F0000F81E0000F0B5DE46DC
:1006900057464E464546E0B585B003AA0090FFF7A1
:1006A000A9FE00286ADD012303990130994398438C
:1006B000344B0F279B46344B814698460F23060048
:1006C0009A46009A314C920003910194A1500F4038
:1006D00053465846994300F023FFF90FC9194910B2
:1006E0008B0059182020013100F00CFA0E23B51EA2
:1006F000DC1B12E0202000F095FC039B404619888B
:1007000000F00EFF039B270002332E000393002C02
:100710002DDD023C023D002E14DD062CEAD1AB1C7F
:100720004B4522D02D2000F07DFC039B40461988CC
:1007300000F0F6FE039B2E0002330393023C023DC1
:10074000002EEADC0A2000F06DFC009A019B944622
:100750006344180064230371623B037205B0F0BC6C
:10076000BB46B246A946A046F0BD2020DBE70A20E2
:1007700000F058FC002DE8DD0399A9E7034B019335
:10078000E3E7C046F81E0000081F000008780010CC
:10079000F0B54546DE4657464E46E0B585B003AA5D
:1007A0008046FFF727FE00286ADD03230399033004
:1007B00099439843344B424699460F230F2782466C
:1007C00006009B46314C920003910194A1500F40CA
:1007D0005B464846994300F0A3FE0323F9171940EE
:1007E000C9198910CB0059182020013100F08AF96D
:1007F0000C23351FDC1B13E02021404600F09EFA3D
:10080000039B4846196800F08BFE039B27000433C6
:100810002E000393002C2CDD043C043D002E15DD3E
:10082000042CE9D12B1D534521D02D21404600F049
:1008300085FA039B4846196800F072FE039B2E0060
:1008400004330393043C043D002EE9DC0A2000F04D
:10085000E9FB019B4344180064230371603B03726E
:1008600005B0F0BCBB46B246A946A046F0BD20216B
:10087000DCE70A2000F0D6FB002DEADD0399A7E7AC
:10088000024B0193E5E7C046F81E0000087800100F
:1008900070B5010082B0040000F04EF9009000280D
:1008A0000CD00378002B0BD14E4B19190A79642A0E
:1008B00065D0652A37D02000FFF75EFD02B070BD1D
:1008C000484E3219117965293BD0431C0093437877
:1008D00002781902114349BA89B2002B2ED1424B3A
:1008E0001A88002A40D00025023305E002339A1E00
:1008F00012880135002A37D09142F7D1684600F0BE
:10090000F5F83A4BAD00EB58694620003619984788
:10091000357C002DCFD03F2000F084FB29003448E7
:1009200000F0FEFDC7E7A2009B180A7AD9682000F4
:100930008C466244DA60FFF71FFDBFE7023000908B
:10094000CDE72E2B28D0137A0190012B27D0042B32
:100950003BD0802101A800F0A5F8A300F618F368A9
:1009600018800233F360A6E73F2000F05BFB012113
:100970001F4800F0D5FD2000FFF7FEFC9EE70B7A34
:10098000012B18D0022B1BD0042B00D093E7694613
:100990002000FFF7FDFE8EE7612313718BE71B310B
:1009A00001A800F07FF8A300F618F3681870F36848
:1009B0000133F3607FE769462000FFF7CBFD7AE75C
:1009C00069462000FFF762FE75E7A300F618802154
:1009D00001A8F56800F066F8F36828600433F36056
:1009E00069E7C046087800108C1E0000A41E0000B5
:1009F000101F0000F0B5C64600B582B001AA0C0079
:100A0000FFF7F8FC0500200000F070F880212000BE
:100A1000266800F047F823689B1B5A1E93415F42EB
:100A20000740200000F062F880212000266800F0D6
:100A300039F823689B1B5A1E93415E4206402000F2
:100A400000F054F8236880219846200000F02AF82E
:100A50002368434519D0002813DD6B1E73439C4661
:100A60003A000023002D09DD019901334C1C01944B
:100A70000A7092199D42F7D1F7196744013800288E
:100A8000EED102B080BCB846F0BD0120E5E7C0461B
:100A90000F23034018005730092B01D830331800BA
:100AA0007047C046026870B5531C050059180020F5
:100AB0000DE0203BDBB21C00413C052C14D8013278
:100AC000373B8C1A002C0FDD000118182A601378B0
:100AD000602BEED81C00303CE6B2092EEBD8013278
:100AE00023008C1A002CEFDC70BDC04603681A7816
:100AF000202A06D10133036001335A1E1278202ABE
:100B0000F9D0704770B505000C1E05DD2800013CCA
:100B100000F088FA002CF9D170BDC0460022044BC9
:100B20001A5482009B18034AC0018018586070470D
:100B30001C78001024780010F8B54E464546DE4675
:100B40005746E0B5274BCE01F618274B804699460D
:100B50005B5C0D00002B17D18B009A464B4653442B
:100B60005F687F239B46B344280000F023F904000C
:100B7000082810D00D2827D00A28F5D000281AD12F
:100B800000264B4653445F603000F0BCBB46B24683
:100B9000A946A046F8BDB742E6D90821404600F074
:100BA000CDF82021404600F0C9F80821404600F069
:100BB000C5F8013FD8E70100404600F0BFF87B1CB4
:100BC0003C701F005B45CFD30D21404600F0B6F8C6
:100BD0000A21404600F0B2F84A46BB1B5355002399
:100BE0003B70CEE7247800101C78001010B5002A66
:100BF00009DD0023013A920801329200CC58C4501A
:100C000004339342FAD110BD7047C04670B5114A03
:100C1000114EC1018300D3188D195D609D60DD60A8
:100C20000D008035AE191E610C4E002489199961A2
:100C3000D9611962282114541218147554540431BE
:100C4000AD19545404315D6254545C6300F038FDB6
:100C500070BDC046A478001060790010E0780010E4
:100C600070B5040000F0B6FDFF231B02184221D02E
:100C7000C3B2132B1FD0112B22D01A49A2008A18FD
:100C8000D068451CD5600370D3681069834201D3D6
:100C90005368D3600B5D5BB2002B03DB0B5D01334C
:100CA000DBB20B550B5D532B04D928230919CA5C01
:100CB000002A0ED070BD30220A480419A354F9E767
:100CC00030220021074B20001B19995400F08EFDA3
:100CD000F0E71332CA5404332000CA5400F086FDF2
:100CE000E8E7C046A47800102C2270B5124D04002D
:100CF0002B18995C002919D11B7D002B13D0830080
:100D0000EB18D969586A4A1CDA610978824201D322
:100D10009A69DA6120002C1900F07CFD237D013BEB
:100D2000DBB2237570BD00F06BFDFBE7002098542B
:100D3000200000F06FFDF5E7A4780010F8B5CE466E
:100D400047468946804680B5002824DB184E870038
:100D50003418F51902E06B6B002B20D1237D5BB2B8
:100D6000002BF8DBF7193B6A5A1C3A624A461A70A4
:100D70003B6A7A6A934201D3BB693B62464400F006
:100D80005FFC337D0133DBB233753023F35C002B22
:100D900009D000F05DFCC0BCB946B046F8BD0021EA
:100DA000A86B9847DAE7404600F020FDF1E7C0461F
:100DB000A4780010F8B5204F04003B5CDEB2002B95
:100DC00011D185007D196B6B002B0AD03A5C002A8B
:100DD00001D006E06B6B0121A86B98473B5D002BAF
:100DE000F8D03000F8BD00F02BFC3B5D013BDBB2DE
:100DF0003B5500F02DFC3B5D2A2B10D828233D19D4
:100E0000EA5C002A0BD00022EA5400F019FC2C23E3
:100E100011222000EA5400F0E9FC00F019FCA400C3
:100E20003C19A268531CA360167822699342D8D358
:100E30006368A360D5E7C046A4780010014B185C36
:100E40007047C046A4780010014B1B18187D7047EE
:100E5000A4780010002804DC024B8000181882637C
:100E600041637047A47800100020704770B50C00F3
:100E7000074D0A2905D02B68E1B21868FFF75EFF1D
:100E800070BD2B680D211868FFF758FFF3E7C046C7
:100E90000078001010B5044C23681868FFF78AFF2B
:100EA0000028F9D010BDC04600780010F8B50E1E1D
:100EB0000CD01500064C571823681868FFF77AFF06
:100EC0000028F9D028700135BD42F5D13000F8BDB9
:100ED00000780010F0B5C646884600B500291BD042
:100EE00014000F4D561807E02B68390018680134BC
:100EF000FFF724FFA6420FD027780A2FF4D12B68E2
:100F00000D211868FFF71AFF2B68390018680134A3
:100F1000FFF714FFA642EFD1404680BCB846F0BDB3
:100F20000078001070B5050008000C0000F0F4FA1D
:100F3000002800D0034C2900200023699847012095
:100F400070BDC046047A001070B5050008000C00A2
:100F500000F0E2FA002800D0074C280000F0A8FDBD
:100F60002A00010063692000984705000A2120003B
:100F700023699847280070BD047A001010B5002836
:100F800002D08368984710BD0048FAE7E479001062
:100F9000030010B5101E03D01A00C468A04710BD8E
:100FA0000048F9E7E479001070B505000C00181E40
:100FB00008D06243C36811002A009847210000F05E
:100FC000A5FD70BD0048F4E7E4790010F8B507000E
:100FD00018000E0015001C0000F09EFA002800D03A
:100FE000054C29003A00714363692000984731009D
:100FF00000F08CFDF8BDC046047A001070B5050005
:1010000000F056FD064C2A000100636BE06B984728
:10101000050020000A21236B20309847280070BD6E
:10102000E479001070B50500044C200000F074FA5B
:101030002900200023699847012070BD047A001020
:1010400010B5002802D08369984710BD0048FAE720
:10105000047A001010B5034B1B681868FFF7EEFE0A
:1010600010BDC04600780010014B4001C018704709
:10107000E4790010022813D80B4B42019B1801227F
:1010800052425A60094A9A60094ADA60094A1A616A
:10109000094A5A61094A9A61094A1268DA61704735
:1010A00001204042FBE7C046E4790010950E0000A5
:1010B000AD0E00006D0E0000D50E0000690E0000A0
:1010C00000780010602294460A4BF0B518600A4B75
:1010D0000A4F0B4E0B4D0C4C0C499C44613A5A6024
:1010E0009F60DE601D615C619961D861203363455A
:1010F000F5D1F0BD00780010E4790010950E0000E5
:10110000AD0E00006D0E0000D50E0000690E00004F
:10111000F0B5DE4657464E464546E0B587B00193EA
:10112000139B9246814698460F0000F075FD03AB75
:101130009B4653465A465B5C56461370129A05000E
:1011400001244B46924600E005009F420BD839002F
:10115000280000F061FD02AA735C013403321355CC
:101160002B000C2CF0D1019B109A56469F1A012A95
:101170004CD1119B012B45D141462D20D047012355
:1011800002259A46BC421EDA119A2023012A00D178
:1011900030232500DBB21C00A94641462000013562
:1011A000B047AF42F9DC52464C4600230132BC4204
:1011B00001DA013F3B1B9A46924453465F1C109B49
:1011C0003D00012B08D15746119B0137002B03D15D
:1011D00041462D20B0476F1C5B46013C1D19230082
:1011E0004446984628782100B0472B00013D9B4596
:1011F000F8D14446E01907B0F0BCBB46B246A94658
:10120000A046F0BD119B01259A46BBE7109B9A466C
:10121000BC42B9DB5F1CDFE710B5FFF703FF10BD71
:10122000F0B557464E464546DE46E0B58246107854
:10123000884616009946002787B0541C00282FD0F6
:10124000AF4B9B4607E04146D047260001370134AB
:101250003078002824D02528F5D17278302A27D07C
:101260001400B51C303C002128000023092C28D88C
:1012700014009A00D21852001219130002001478B8
:1012800001302200303A0600303B092AF1D9221EF3
:101290001AD0253A532A1ED85846920082589746AB
:1012A000380007B0F0BCBB46B246A946A046F0BD28
:1012B000B278F51C1400303C012128000023092CD1
:1012C000D6D92E00002AE4D13400013EC0E74146C1
:1012D0002520D0470137741CBAE74D4601CD0028C0
:1012E00000DAA4E0424603925246029200220191A3
:1012F00000920A21834AFFF70BFFA9463F18741C8E
:10130000A6E73278751C002ACAD0583AD2B2202AF1
:1013100013D87D489200825897464C4601CC794AB2
:10132000A146444601910394002154460091029441
:1013300020321031FFF7ECFE3F18B41C2E0087E777
:101340003278751C002AABD0583AD2B2202AF4D891
:101350006E489200825897464D46424601CD039210
:10136000524602920022019100920821654AFFF73D
:10137000CFFEA9463F18741C6AE7494604C9107895
:101380000591002800D1B9E0D21BDD19531CA946F4
:101390005546B2464646984643463100DC19A847B2
:1013A0004B4620780137DB1B0028F5D1B0461C00E6
:1013B0005646AA46251E0EDDB1464646A046544670
:1013C00031002020013DA047002DF9D1A24644461E
:1013D000B0464E463F19059B741C994638E74D466A
:1013E00001CD7FE742464D4601CD0392524602921F
:1013F00000220092464A01911021FFF789FEA9467A
:101400003F18741C24E742464D4601CD03925246D4
:1014100002920022019100923E4AEDE74D4601CD35
:101420004146C0B2D047A9460137741C10E7424676
:1014300003925246404202920191012258E74A46E5
:1014400001CA9146002814DB42460392524602929A
:101450000022019100920A212A4AFFF759FEB41C8A
:101460003F182E00F4E6484604C8814610B2120424
:10147000EAD542460392524640420292019101222D
:10148000E8E74C4601CC1F4AA1460004000C444644
:101490000191039400215446009102940C3248E7D4
:1014A0004C4601CC174AA146F1E74A4601CA91468B
:1014B000CAE74A4601CA9146424603925246029200
:1014C00000220191009208210E4AFFF721FEB41C70
:1014D0003F182E00BCE64A4601CA00049146000CA3
:1014E000B2E74C4601CC074A0004A146000C18E7BD
:1014F0004A4601CA00049146000CDDE71C0059E78A
:10150000181F00007021000068200000EC2000007F
:101510007C21000090210000434258417047C046A2
:101520000FB400B583B004AB04CB00210348019392
:10153000FFF776FE03B008BC04B01847191200008C
:1015400010B5040000F018F80A2C00D010BD0D20D2
:1015500000F012F8FAE7C0460FB400B583B004AB50
:1015600004CB002103480193FFF75AFE03B008BCE7
:1015700004B0184741150000202209490B681A429F
:10158000FCD0084B18600A2800D07047202204497C
:101590000B681A42FCD00D22024B1A60F5E7C046D8
:1015A00014800040008000402022F0B50D00224948
:1015B0000B681A42FCD0214B18600A2833D0202235
:1015C0001D490B681A42FCD01C4E1C2132600F27AB
:1015D000202219482B000B413B401C003034092BC2
:1015E00001DD37331C0003681A42FCD00439346033
:1015F0000B1DEFD1202210490B681A42FCD00A22A1
:101600000E4B0D491A6016320B681A42FCD00D229F
:101610000A4B09491A6013320B681A42FCD00D229A
:10162000064B1A60F0BD202203490B681A42FCD019
:101630000D22024B1A60C2E7148000400080004077
:101640008022024B92031A607047C04680E100E09E
:101650008022024B92031A607047C04600E100E00E
:1016600010B50248FFF778FFFEE7C046A42100004E
:1016700010B50248FFF770FFFEE7C046C02100002A
:1016800010B50248FFF768FFFEE7C046E021000002
:1016900010B50248FFF760FFFEE7C04604220000D5
:1016A00010B50248FFF758FFFEE7C04624220000AD
:1016B00010B50248FFF750FFFEE7C0464822000081
:1016C000F0B5C64600B5324F84B082221A21C5005B
:1016D00001207C5900F0B2F882221B21012000F089
:1016E000ADF801222B4B03261A6080232A4A5B01A6
:1016F000116868460B4313600723A3600933A36294
:10170000264B1B681E4000F00DF9022E37D0032E29
:101710003BD0012E36D0009B9846E121404649053A
:1017200000F0F4F9E12106004903404600F0EEF92B
:101730003302C01A8023E26801211A43E26020606C
:101740006660E2689A43E2600322E2607E32A26051
:10175000236363687C3A134363607B191879033A07
:1017600000F09CF878592022010014310B681A42CD
:10177000FCD00D23036004B080BCB846F0BD039BD1
:101780009846CAE7019B9846C7E7029B9846C4E77C
:101790006C220000988004408080044070800440E7
:1017A0000A4B70B51B689B070BD4094C2368DB07F9
:1017B00006D501250020FFF753FA23681D42F9D111
:1017C00070BD0020FFF790FAEFE7C04604800040AC
:1017D00014800040034BC000C35803481B681843E3
:1017E00080B270476C22000000FFFFFF0221034B14
:1017F000C000C25853680B43536070476C2200000E
:101800000221034BC000C25853688B43536070479A
:101810006C220000024BC000C35819607047C046DC
:101820006C2200002021044BC000C25814321368FF
:101830001942FCD07047C0466C220000012804D039
:1018400002280ED0002806D070470D4B9C466144FC
:1018500089000A60F8E70B4B9C46614489000A60E6
:10186000F2E7012905D9084B9C46614489000A60CA
:10187000EAE7064B9C46614489000A60E4E7C046FB
:1018800018100110001001103D1001103C10011043
:10189000014B18687047C046647A0010F0B5002903
:1018A0000AD11C4A430994461F2210401E3A824026
:1018B0009B0063441A60F0BD03210500FF24164B12
:1018C0008D439C460140C9008C40144B65442E68F2
:1018D0001B68A6435B055B0F1F1C042B17D9012453
:1018E0002300053FFFB2BB40BA40013B1343DBB2CC
:1018F0009B010B4ADBB28B4094461F2233432B6083
:101900004309104084409B0063441C60D3E70527D3
:10191000E5E7C04680E100E000E400E00CED00E017
:1019200000E100E0124B10B51A68032304001340D5
:1019300092071BD5033B5A425341DB031F210D4A3B
:10194000636022600C4A12680A4001325343A3606C
:101950000A4B1A68D30511401B0F094A9B0001313D
:101960009858490000F0D2F8E06010BD014BE5E75F
:1019700040800440001BB7000880044024800440DD
:10198000742200008023344A70B5012611685B027E
:101990000B4313608122C825304B314C1E60314B04
:1019A0002D021E60304B31481A602368304A84B0E3
:1019B00013402B432360FEF7C7FB002203212D4B6E
:1019C0001E602D4B1A602D4A1E6013688B4301392F
:1019D0000B43136023682A4A2A491A402A4B1343AF
:1019E00063222360294B1A602368294A134001228D
:1019F0001D4325600B681A42FCD000210324254BAF
:101A0000254E264D326068462C6019601A60FFF73B
:101A100089FF31682B682340022B0AD0032B14D096
:101A2000012B0CD0009800F071F81D4B186004B029
:101A300070BD039800F06AF8194B1860F7E7019839
:101A400000F064F8164B1860F1E7029800F05EF8B9
:101A5000134B1860EBE7C04680800440F040044020
:101A600038820440F44004400C400440A0D90800EF
:101A7000DF250000408004404480044010C0034043
:101A8000FF2500000C80044080C80000088004404E
:101A90007F250000748004407880044070800440FA
:101AA000647A0010014B18607047C04608ED00E0F2
:101AB00010B583070AD00300032102E001330B4273
:101AC00005D01A78002AF9D1181A10BD0300196838
:101AD0000C4A0D4C8A188A4322420FD15968094A90
:101AE00004338A188A43224208D15968054A0433CC
:101AF0008A188A432242F1D000E001331A78002A82
:101B0000FBD1E1E7FFFEFEFE8080808000224308DB
:101B10008B4274D303098B425FD3030A8B4244D3B5
:101B2000030B8B4228D3030C8B420DD3FF220902F7
:101B300012BA030C8B4202D31212090265D0030BB6
:101B40008B4219D300E0090AC30B8B4201D3CB03AC
:101B5000C01A5241830B8B4201D38B03C01A5241EE
:101B6000430B8B4201D34B03C01A5241030B8B42F0
:101B700001D30B03C01A5241C30A8B4201D3CB02DB
:101B8000C01A5241830A8B4201D38B02C01A5241C0
:101B9000430A8B4201D34B02C01A5241030A8B42C3
:101BA00001D30B02C01A5241CDD2C3098B4201D3DB
:101BB000CB01C01A524183098B4201D38B01C01A59
:101BC000524143098B4201D34B01C01A52410309D0
:101BD0008B4201D30B01C01A5241C3088B4201D37F
:101BE000CB00C01A524183088B4201D38B00C01A2C
:101BF000524143088B4201D34B00C01A5241411A53
:101C000000D20146524110467047FFE701B500205F
:101C100000F006F802BDC0460029F7D076E770470D
:101C20007047C046000000000000000000000000F7
:101C300053746172742041646472657373203D2033
:101C40002530386C780A0000456E642020204164FD
:101C50006472657373203D202530386C780A00006B
:101C6000456E7472792041646472657373203D20FF
:101C70002530386C780A00004572726F72203D2062
:101C8000253038780A0000004F4D31333035382088
:101C90004D6F6E69746F722076312E30360D0A43A7
:101CA0006F70797269676874202843292031393947
:101CB000392D323030342043534520546F6D616BE1
:101CC0006F6D6169204E43540D0A436F70797269DC
:101CD0006768742028432920323031362D32303263
:101CE0003520544F50504552532050524F4A45438F
:101CF000542E002D2D2D2D2D2D2D2D2D2D2D2D2D19
:101D00002D2D2D2D2D2D2D2D2D2D2D2D2D2D2D2D03
:101D10002D2D2D2D2D2D2D2D2D2D2D2D2D2D2D2DF3
:101D20002D2D2D2D2D2D2D2D2D2D2D2D2D2D2D2DE3
:101D30002D2D2D2D2D2D2D2D2D2D2D2D2D2D2D0000
:101D40006C64202020202020202020202020206CB7
:101D50006F61642070726F6772616D202020202097
:101D600020202020207C20676F5B3C61643E5D204A
:101D7000202020202020676F2070726F6772616DB5
:101D80000064625B3C61643E5B3C6C6E3E5D5D206A
:101D900064756D70206279746520202020202020D9
:101DA0002020202020207C2064775B3C61643E5B07
:101DB0003C6C6E3E5D5D2064756D7020776F726463
:101DC00000646C5B3C61643E5B3C6C6E3E5D5D2020
:101DD00064756D70206C6F6E6720776F7264202061
:101DE0002020202020207C2065625B3C61643E5DD9
:101DF00020202020202020656E7465722062797476
:101E0000650065775B3C61643E5B3C6C6E3E5D5D8E
:101E100020656E74657220776F7264202020202008
:101E2000202020202020207C20656C5B3C61643ECB
:101E30005D20202020202020656E746572206C6F4C
:101E40006E6720776F72640066625B3C61643E5B24
:101E50003C6C6E3E5B3C696E3E5B3C69633E5B3C4A
:101E600072703E5D5D5D5D5D2066696C6C206279BF
:101E70007465003F202020202020202020202020CA
:101E8000202068656C700000000000006C657765BC
:101E900062656C64776462646266646C6F67003F5D
:101EA000000000001D050000E5040000AD04000076
:101EB000910700008D06000055050000F50900009F
:101EC000F5010000AD01000081010000257800004F
:101ED0002530386C783A253032783A002530386C25
:101EE000783A2530386C783A000000002530386C9C
:101EF000783A253034783A002530386C7800000084
:101F000025303278000000002530347800000000D1
:101F1000253032780A000000CE120000D6120000F0
:101F2000D6120000D6120000D6120000D612000011
:101F3000D6120000D6120000D6120000D612000001
:101F4000D6120000D6120000D6120000D6120000F1
:101F5000D6120000D6120000D6120000D6120000E1
:101F6000D6120000D6120000D6120000D6120000D1
:101F7000D6120000D6120000D6120000D6120000C1
:101F8000D6120000D6120000D6120000D6120000B1
:101F9000D6120000D6120000D6120000D6120000A1
:101FA000D6120000D6120000D6120000D612000091
:101FB000D6120000D6120000D6120000D612000081
:101FC000D6120000D6120000D6120000D612000071
:101FD000D6120000D6120000D6120000D612000061
:101FE000D612000006140000D6120000D61200001F
:101FF000D6120000D6120000D6120000D612000041
:10200000D6120000D6120000D6120000D612000030
:102010001C140000DA120000D6120000D6120000D4
:10202000D612000002130000DA120000D6120000DF
:10203000D612000040130000D6120000D612000095
:1020400058130000D6120000D6120000D61200006D
:102050007A130000D6120000DE130000D612000032
:10206000D6120000E4130000E21400003A1300004E
:102070003A1300003A1300003A1300003A1300002C
:102080003A1300003A1300003A1300003A1300001C
:102090003A1300003A130000661400003A130000DF
:1020A0003A1300003A1300003A13000066140000CF
:1020B0003A1300003A1300003A1300003A130000EC
:1020C0003A130000F01400003A1300003A13000025
:1020D0003A1300003A1300003A130000D61400002F
:1020E0003A1300003A130000821400001A13000093
:1020F0003A1300003A1300003A1300003A130000AC
:102100003A1300003A1300003A1300003A1300009B
:102110003A1300003A1300003A1300003E14000086
:102120003A1300003A1300003A1300003A1300007B
:102130003E1400003A1300003A1300003A13000066
:102140003A1300003A130000B21400003A130000E2
:102150003A1300003A1300003A1300003A1300004B
:10216000AA1400003A1300003A130000A014000063
:10217000303132333435363738390000303132338C
:1021800034353637383961626364656600000000B3
:10219000303132333435363738394142434445469D
:1021A000000000004E4D4920457863657074696FEA
:1021B0006E206F63637572732E20210A0000000089
:1021C00048617264204661756C742045786365705F
:1021D00074696F6E206F63637572732E20210A001D
:1021E0004D656D6F7279204D616E61676572204536
:1021F0007863657074696F6E206F63637572732E98
:1022000020210A00427573204661756C7420457860
:1022100063657074696F6E206F63637572732E20CF
:10222000210A00005573616765204661756C742052
:10223000457863657074696F6E206F636375727340
:102240002E20210A000000004465627567204D6F52
:102250006E69746F7220457863657074696F6E2063
:102260006F63637572732E20210A000000800040A6
:102270001500020000000000C027090090051000B2
:10228000C05C1500F0B31A00200B2000009F240052
:10229000E0322900C0C62D0050973100E0673500BC
:1022A0007038390000093D0040164000802343008B
:1022B000C0304600000000000000000000000000E8
:0422C000E0790010B1
:0400000300000100F8
:00000001FF
