S00E0000726F6D6D6F6E2E737265637E
S315080000007036000015020008E9170008F9170008FD
S315080000100918000819180008291800080000000027
S315080000200000000000000000000000007502000843
S31508000030391800080000000075020008750200085B
S3150800004075020008750200087502000875020008A6
S315080000507502000875020008750200087502000896
S315080000607502000875020008750200087502000886
S315080000707502000875020008750200087502000876
S315080000807502000875020008750200087502000866
S315080000907502000875020008750200087502000856
S315080000A07502000875020008750200087502000846
S315080000B07502000875020008750200087502000836
S315080000C07502000875020008750200087502000826
S315080000D0750200087502000875020008551A00081E
S315080000E07502000875020008750200087502000806
S315080000F075020008750200087502000875020008F6
S3150800010075020008750200087502000875020008E5
S3150800011075020008750200087502000875020008D5
S3150800012075020008750200087502000875020008C5
S3150800013075020008750200087502000875020008B5
S3150800014075020008750200087502000875020008A5
S315080001507502000875020008750200087502000895
S315080001607502000875020008750200087502000885
S3150800017075020008750200087502000800000000F4
S315080001807502000875020008750200087502000865
S315080001907502000875020008750200087502000855
S315080001A07502000875020008750200087502000845
S315080001B07502000875020008750200087502000835
S315080001C075020008750200080000000075020008A4
S315080001D07502000875020008750200087502000815
S315080001E07502000875020008750200087502000805
S30D080001F07502000875020008FB
S3150800020070260008003000000430000004300000AA
S3150800021070320000DFF844D0002103E0104B5B5831
S31508000220435004310F48104B42189A42F6D30F4AEE
S3150800023002E0002342F8043B0D4B9A42F9D301F041
S31508000240B3FD00F01DF97047A0F16400002800DC3A
S315080002507047A0F109000028FBDC704770360000E3
S31508000260702600080030000004300000043000004A
S3150800027070320000FEE7000038B55320084D2C46C2
S31508000280254600F0F5FE14F8010F0028F8D10A20DB
S31508000290023500F0EDFE60780028F0D138BD00BFC9
S315080002A0B822000838B50C4680212046256800F09B
S315080002B0EDFB2368AB4211D0044600F0A7FC01F021
S315080002C087FA084801F040FCA04701F081FA064881
S315080002D001F03AFCBDE8384001F080BA014B5C6891
S315080002E0EBE700BF00000020000000082DE9F04FF2
S315080002F00025544B612283B004462E46A846524F29
S315080003004FF0F1091A54204600F0FAFB21464FF047
S31508000310FF3000F005FC00900028F7D0431C00933E
S315080003200378532BEFD1831C022101A84FF0000B51
S31508000330019300F0ABFB019B8246023B019302212D
S3150800034001A800F0A3FBBAF1010A8344F7D50BF123
S31508000350FF33DBB2FD2B04D83B5DA8460BB907F883
S315080003600490009B022168465A1C009293F800A04C
S3150800037000F08CFB8346BAF1310F51D0BAF1320F37
S3150800038013D0BAF1330F41D0BAF1370F28D0BAF1EA
S31508000390380F3FD0BAF1390F46D0AAF1370ABAF169
S315080003A0020FB0D84FF000091FE06FF002050621D2
S315080003B0684600F06BFB0BF1FF33002E08BF0646BC
S315080003C02B440546002BE8DD00EB030B02216846AB
S315080003D000F05CFB2B46013518705D45F6D1DCE76D
S315080003E00421684600F052FB81463146174801F061
S315080003F057F92946164801F053F94946154801F0B8
S315080004004FF93B5DB3B903B0BDE8F08F6FF0030554
S315080004100821CDE76846062100F038FB8146E4E767
S315080004206FF001050421C3E76846082100F02EFB9A
S315080004308146DAE74146084801F032F903B0BDE8DB
S31508000440F08F00BF0C300000183000006022000852
S315080004507822000890220008A8220008704700BFEA
S31508000460704700BF10B5044600F062F8034B00223F
S3150800047020461A55BDE8104000F042BB183000006F
S3150800048008B5114801F060FB104CFFF7E7FF0020A4
S3150800049000F0BEFB4FF000530D4A61210D48236062
S315080004A003601170FFF7DCFF01F098F90A4800F0C5
S315080004B033FE0A4800F0C6FD0020FFF7D3FF0020F0
S315080004C000F0EAF9FBE700BF00000008143000005E
S315080004D00C3000000830000004300000B822000884
S315080004E0F8B50C4615460646084600F0F5FA80218A
S315080004F02046276800F0CAFA28602368BB420DD058
S31508000500204600F0E9FA80212046256800F0BEFA68
S3150800051023689D4208BF4FF48070F8BD034B4FF423
S31508000520807053F826302B60F8BD00BF08300000F5
S3150800053008B5154B1A18117965290DD1127A03EBEE
S315080005408003012A11D0042A16D0D9680F480A88D0
S31508000550BDE8084001F0A4B801460D4801F0A0F82E
S315080005603A20BDE8084000F083BDD96809480A78F2
S31508000570BDE8084001F094B8D96807480A68BDE89C
S31508000580084001F08DB800BF083000002825000893
S31508000590082500080C2500081825000870B50D4622
S315080005A00446802128462E6800F070FA2B68A200BF
S315080005B0B342074B08BF03EB84011C4413444FF0B6
S315080005C0010208BFC86865212272D860217170BD12
S315080005D00830000070B50D460446802128462E686E
S315080005E000F054FA2B68A200B342074B08BF03EB8E
S315080005F084011C4413444FF0020208BFC8686521F1
S315080006002272D860217170BD0830000070B50D46A1
S315080006100446802128462E6800F038FA2B68A20086
S31508000620B342074B08BF03EB84011C4413444FF045
S31508000630040208BFC86865212272D860217170BD9E
S31508000640083000002DE9F04F85B0074603AAFFF7EA
S3150800065047FF041E52DD03992E4B01F00F06DFF803
S31508000660BC90019343F8271021F00F012A4801F0A6
S3150800067017F8C6F1100A06EB460120202546D34690
S31508000680013100F033FADDF80C800FE00BF1FF3B87
S3150800069000F066FB18F8011B484601F001F8BBF1AB
S315080006A0000F05F1FF350CDD002D0ADDBBF1080F43
S315080006B04FF02D01384601D1AC42E7D1202138460A
S315080006C0E4E7B11C2020564600F010FA039B013ED1
S315080006D03846013C5A1C03921978A1F120035E2B77
S315080006E088BF2E2100F03CFB002E01DD002CEDDC3E
S315080006F00A2000F0BDFC1CB10399B5E7054B019330
S31508000700019B64223B441F4601233A713B7205B0A4
S31508000710BDE8F08F08300000342500083C250008A5
S315080007202DE9F04782B0824601AAFFF7D9FE0028D4
S3150800073044DD0130019CDFF8A09020F0010724F089
S315080007400101DFF8988004F00E043D46214E019120
S3150800075049F82A1021F00F01404600F0A1FF002CAD
S3150800076021464FF02000B8BF611CC4F1100449109F
S3150800077001EB8101013100F0B9F910E000F078FCD5
S31508000780019B3046023C1988023D00F089FF019B17
S31508000790002C03F10203019309DD002D07DD082C67
S315080007A04FF02D0001D1AF42E8D12020E6E70A201C
S315080007B000F05EFC002D03DD0199CBE7DFF8189009
S315080007C0D1446422022389F8042089F8083002B04B
S315080007D0BDE8F087442500080830000034250008E5
S315080007E02DE9F04383B0064601AAFFF779FE0028F3
S315080007F044DD0330019CDFF89C9020F0030824F0C8
S315080008000301234F04F00C044546019149F82610CC
S3150800081021F00F01384600F043FF002C21464FF027
S315080008202000B8BFE11CC4F11004891001EBC10116
S31508000830013100F05BF910E000F092FA019B3846AE
S31508000840043C1968043D00F02BFF019B002C03F1C2
S31508000850040301930BDD002D09DD082C4FF02D0153
S31508000860304601D1A845E7D120213046E4E70A20E1
S3150800087000F0FEFB002D03DD0199C9E7DFF81490AF
S315080008804E44642204233271337203B0BDE8F08308
S31508000890342500080830000070B582B001460446C9
S315080008A000F03EF9009058B103785BB94A4B191924
S315080008B00A79642A5FD0652A32D02046FFF7D2FD2E
S315080008C002B070BD444E32191179652935D0431CE2
S315080008D000930188437849BA89B25BBB3F4A1388BB
S315080008E0002B3DD0002504E032F8023F0135002BED
S315080008F036D09942F8D16846264400F0EDF8384BD0
S315080009006946204653F825309847357C002DD4D0C3
S315080009103F2000F0ADFB2946324800F0C1FECCE787
S3150800092003EB8403097A2046DA680A44DA60FFF79B
S3150800093099FDC5E702300090D0E72E2B27D0137A11
S315080009400190012B26D0042B3AD006EB8406802191
S3150800095001A800F09BF8F36823F8020BF360ACE7F4
S315080009603F2000F085FB01211E4800F099FE204635
S31508000970FFF778FDA4E70B7A012B17D0022B1AD0C4
S31508000980042B9AD169462046FFF72AFF95E761238B
S31508000990137192E706EB8406802101A800F076F829
S315080009A0F3681870F3680133F36086E769462046F2
S315080009B0FFF748FE81E769462046FFF7B1FE7CE768
S315080009C006EB8406802101A8F56800F05FF8F36855
S315080009D028600433F36070E708300000C824000874
S315080009E0E02400084C2500082DE9F04182B00C46A9
S315080009F001AAFFF775FD0546204600F06DF880212F
S31508000A002046266800F042F82368B34214BF07461A
S31508000A100027204600F060F880212046D4F80080A0
S31508000A2000F034F82368434514BF064600262046DE
S31508000A3000F052F880212046D4F8008000F026F80D
S31508000A402368434518D0002813DD05F1FF3C06FB53
S31508000A500CFC002D0BDD3A460023019901334C1C92
S31508000A609D4201940A703244F7D1374467440138ED
S31508000A70EFD102B0BDE8F0810120E6E700F00F00F3
S31508000A80092894BF30305730704700BF30B5046826
S31508000A904FF0000C631C19440CE0EBB2A3F14105BE
S31508000AA0A3F13702052D15D80B1B002B12DD02EB1F
S31508000AB00C1C046014F8013BA3F13002602BA3F16F
S31508000AC020055FFA82FEE8D8BEF1090FE6D80B1BAF
S31508000AD0002BECDC604630BD03681A78202A04D166
S31508000AE0013303601A78202AFAD0704738B50C1EED
S31508000AF005DD0546284600F0BBFA013CFAD138BDAB
S31508000B00064A4FF0000C02F1080302EB800102F8D6
S31508000B1000C003EBC0134B60704700BF1C300000D9
S31508000B202DE9F04FDFF8C08083B008F1080718F800
S31508000B30013007EBC1175BBB8B000D46064642F238
S31508000B40014A019308EB810307F17F095C6828468F
S31508000B5000F04AF9082883461ED00D282CD90146EC
S31508000B60304600F0FDF804F801BB4C45EFD30D21E3
S31508000B70304600F0F5F830460A2100F0F1F8E31B9C
S31508000B8008F8053000232370019B9844C8F80440F0
S31508000B90384603B0BDE8F08FBC42D8D90146304686
S31508000BA000F0DEF830462021013C00F0D9F859461D
S31508000BB0304600F0D5F8CAE72AFA00F2D30706D578
S31508000BC00D28D4D0BBF1000FC1D15F46DCE7014642
S31508000BD0304600F0C5F804F801BB4C45C7D2BBF156
S31508000BE0000FB4D1F1E700BF1C300000002A0BDD6E
S31508000BF0013A043822F0030304330B4451F8042B5A
S31508000C00994240F8042FF9D1704700BF704700BFDA
S31508000C10F0B4154BC501002403F198021E1D05F119
S31508000C20800C1C54154402EB0C0703EB8002B444F9
S31508000C30034406EBC016C2F8247183F89440C2F840
S31508000C40846083F82841C2F8205183F82C4183F840
S31508000C503041C2F83441C2F890C0C2E92266C2E9FE
S31508000C604655F0BC00F0F0BDA430000038B5044687
S31508000C7000F03AFF10F47F4F23D0C3B2132B21D0D4
S31508000C80112B24D01C4A02EB8401D1F88C00451C98
S31508000C90C1F88C500370D1E92303984203D3D1F8E5
S31508000CA08430C1F88C30135D1B0603D4135D013301
S31508000CB0DBB21355135D532B03D9224492F828311E
S31508000CC07BB138BD0C48044484F8303138BD0A4B32
S31508000CD0002220461C4484F83021BDE8384000F044
S31508000CE00DBF1323204682F8283182F82C31BDE83F
S31508000CF0384000F003BF00BFA430000038B5174DD8
S31508000D002B1893F82C1111BB93F89430DBB105EB33
S31508000D1080030446D3F81C11D3F824014A1C8242E6
S31508000D20C3F81C21097803D3D3F81821C3F81C216A
S31508000D3020462C4400F0F6FE94F89430013BDBB2D2
S31508000D4084F8943038BDBDE8384000F0E1BE002292
S31508000D5083F82C21BDE8384000F0E4BEA43000003A
S31508000D602DE9F843061E3BDB1E4F89464FEA8608E7
S31508000D70BC1907EB860502E0D5F8343123BB94F895
S31508000D8094301B06F8D407EB0803D3F82021511C2E
S31508000D90C3F8201182F80090D3E94812914203D390
S31508000DA0D3F81821C3F82021374400F011FD97F82D
S31508000DB094300133DBB287F8943097F8303143B179
S31508000DC0BDE8F84300F00ABD0021D5F83801984778
S31508000DD0D5E7304600F092FEBDE8F84300F0FEBCC9
S31508000DE0BDE8F883A4300000F8B5234F04463B5C01
S31508000DF0A3B907EB800503F0FF06D5F834315BB1DC
S31508000E003A5C12B108E0D5F834310121D5F8380139
S31508000E1098473B5D002BF6D03046F8BD00F0D8FC6D
S31508000E203B5D013BDBB23B5500F0D8FC3B5D2A2B12
S31508000E3010D83D1995F8283163B1002385F8283173
S31508000E4000F0C6FC1123204685F82C3100F056FE2A
S31508000E5000F0C4FC07EB8404D4F88820D4F890107A
S31508000E60531C8B42C4F888301678D5D3D4F884300E
S31508000E703046C4F88830F8BDA4300000014B185C31
S31508000E80704700BFA4300000024B184490F8940045
S31508000E90704700BFA4300000002804DC024B03EBB7
S31508000EA08000C0E94D127047A4300000002070474A
S31508000EB00A2938B50C46074D06D02B68E1B21868E2
S31508000EC0BDE83840FFF74CBF2B680D211868FFF7BF
S31508000ED047FFF2E70030000010B5044C2368186895
S31508000EE0FFF782FF0028F9D010BD00BF00300000D0
S31508000EF0F8B50E4661B1551E064C6F18236818687A
S31508000F00FFF772FF0028F9D005F8010FBD42F5D1A9
S31508000F103046F8BD003000002DE9F0410F46C1B15A
S31508000F205618541EDFF83080013E07E0D8F8003026
S31508000F3029461868FFF714FFB4420AD014F8015F6F
S31508000F400A2DF3D1D8F800300D211868FFF708FFED
S31508000F50ECE73846BDE8F0810030000010B582B0F5
S31508000F600C460190084600F097FB054B01990028AE
S31508000F7018BF1C46204623699847012002B010BDB9
S31508000F800032000038B5054608460C4600F084FBDA
S31508000F90094B02462846002A18BF1C4601F0F0F8FD
S31508000FA02A4601466369204698470546236920462E
S31508000FB00A219847284638BD00320000024B00280F
S31508000FC008BF184683681847E0310000002A134610
S31508000FD0024610B4044C08BF2346DC68184623466C
S31508000FE05DF8044B184700BFE031000038B5002B08
S31508000FF00C4611460246054804FB01F108BF0346A4
S31508001000DD681846A847B0FBF4F038BDE0310000AB
S3150800101070B582B016460D461C460190184600F07B
S315080010203BFB074B019A06FB05F1002818BF1C4637
S31508001030636920469847B0FBF5F002B070BD00BF63
S315080010400032000030B5094C83B0019001F098F8E1
S31508001050636B0146019AE06B98470546236B04F1DA
S3150800106020000A219847284603B030BDE031000029
S3150800107030B5074C83B004F120050190284600F0EE
S315080010800BFB2846236B01999847012003B030BD16
S31508001090E0310000024B002808BF1846836918474C
S315080010A00032000008B5034B1B681868FFF7E6FE18
S315080010B008BD00BF00300000014B03EB401070472D
S315080010C0E0310000022816D80C4B0D4A03EB4013FA
S315080010D00C4910B44FF0FF340968C3E901420A4AC3
S315080010E00A4CD961DA600A490A4AC3E904419A6195
S315080010F05DF8044B70474FF0FF307047E031000051
S31508001100D90E000800300000F10E0008B10E0008E4
S31508001110190F0008AD0E00080C4A0D4B0D4903F1D6
S31508001120600CF0B410604FF0FF320B4F0B4E0C4DB5
S315080011300C4CD861C3E90127C3E90365C3E9054136
S3150800114020336345F5D1F0BC704700BF003000007E
S31508001150E0310000AD0E0008D90E0008F10E0008B7
S31508001160B10E0008190F00082DE9F04F89B0934613
S3150800117000240DF11409DDE91467CE461E46234600
S31508001180013484460B2CA246B0FBF1F201FB120592
S3150800119010461BF805800EF8018B01D88C45EED257
S315080011A0CDE9013A129A3346149E002AA3EB0205AA
S315080011B0139BD4BF4FF0000A4FF0010A002B0ADD3B
S315080011C0BAF1000F07D039462D20B047AC4236DABF
S315080011D00123039303E0AC4234DA00230393139B01
S315080011E0012B0CBF4FF0300B4FF0200B0134394662
S315080011F05846B047A542F9D1029BED1A039B2B44EA
S315080012009B460133139A002A06DCBAF1000F03D075
S3150800121039462D209B46B047019B404609EB0304FF
S3150800122001E014F8010D3946B0474C45F9D10BF1E8
S31508001230010B019B5B44184609B0BDE8F08F4FF0DF
S31508001240010BE9E701234FF0000BDBE7FFF710BFBF
S315080012502DE9F04F1446074687B014F8010B00280D
S3150800126000F08D8116469946DFF810A44FF0000B62
S315080012700D4609E0294626460BF1010B0134B8470D
S315080012803078002800F088802528F3D17278302A33
S3150800129000F0868002360021A2F13003092B4FF0B8
S315080012A000030AD803EB830302EB430316F8012B6A
S315080012B0A2F13000303B0928F4D9002A00F05C81FD
S315080012C0253A532A63D8532A61D8DFE812F0420137
S315080012D06000600060006000600060006000600000
S315080012E060006000600060006000600060006000F0
S315080012F060006000600060006000600060006000E0
S3150800130060006000600060006000600060006000CF
S3150800131060006000600060006000600060006000BF
S3150800132060006000600060006000600060006000AF
S3150800133060006000490160006000600060006000B5
S31508001340600060006000600060004C016D00600095
S31508001350600060007E006D0060006000AF00600005
S315080013606000FF006000600060000D01600034014D
S315080013706000600054000024BE4A59F8040BCDE909
S315080013800041CDE902751021FFF7EEFE8344741C77
S31508001390307800287FF478AF584607B0BDE8F08F5C
S315080013A0B2780121033677E759F8040B0191002832
S315080013B0C0F2EA800022CDE9027500920A21AE4AFF
S315080013C0741CFFF7D1FE83445AE7B4461CF8012B78
S315080013D0002AE1D0583AD0B2202824D8202A22D888
S315080013E0DFE812F03E012100210021002100210042
S315080013F0210021002100210021002100E800210010
S31508001400210021002100E8002100210021002100FF
S3150800141021004E0121002100210021002100340174
S31508001420210021000401B41C664629E7B4461CF8CD
S31508001430012B002AB0D0583AD0B22028F3D8202A57
S31508001440F1D801A050F822F0CF150008271400089B
S315080014502714000827140008271400082714000872
S315080014602714000827140008271400082714000862
S3150800147027140008271400089315000827140008E5
S3150800148027140008271400082714000893150008D5
S315080014902714000827140008271400082714000832
S315080014A0271400082F160008271400082714000818
S315080014B02714000827140008271400081D1600081A
S315080014C027140008271400080D160008002459F8E8
S315080014D0040B694ACDE90041CDE902750821741C5F
S315080014E0FFF742FE8344CBE64A4652F8041B0878C7
S315080014F00592002800F0CD80A1EB0B0103EB0B0849
S3150800150001F1010909EB0B0429460BF1010BB84758
S315080015102078A8EB0B040028F4D1002C07DDA046A0
S3150800152029462020B847B8F10108F9D1A344DDF8C7
S315080015301490741CA4E6002459F8040B4E4ACDE90D
S315080015400041CDE902750A21741CFFF70DFE83449C
S3150800155096E6294625200BF1010B741CB84717E7B8
S315080015600024524609E759F8040B29460BF1010BEA
S31508001570741CC0B2B84783E63446013E80E683460B
S31508001580584607B0BDE8F08F40420122CDE9027502
S3150800159013E759F8040B0191002811DBB41C00224B
S315080015A06646CDE9027500920A21334AFFF7DCFD4B
S315080015B0834465E659F8040B019100B20028EDDA78
S315080015C0B41C404266460122CDE90275EBE7B41C1D
S315080015D0664659F8040B0191CDE9027500221021DF
S315080015E000925246FFF7C0FD834449E659F8040BBA
S315080015F0B41C6646019180B2CDE90275002210211D
S3150800160000921C4AFFF7B0FD834439E659F8040BEB
S31508001610B41C01916646CDE90275EFE759F8040B4B
S31508001620B41C002266460191CDE90275BBE7B41CDD
S31508001630664659F8040B0191CDE902750022082186
S3150800164000920D4AFFF790FD834419E659F8040BFA
S31508001650B41C0022664680B20191CDE90275A2E764
S3150800166059F8040BB41C0191664680B2CDE902759F
S31508001670B4E700BF60250008542500087425000853
S3150800168059F8040BB41C0191664680B2CDE902757F
S31508001690D4E71C4641E700BFB0FA80F0400970471E
S315080016A00FB400B583B00021054804AB53F8042BEA
S315080016B00193FFF7CDFD03B05DF804EB04B0704766
S315080016C04D12000810B5044600F01AF80A2C00D08E
S315080016D010BD0D20BDE8104000F012B80FB400B5DB
S315080016E083B00021054804AB53F8042B0193FFF798
S315080016F0AFFD03B05DF804EB04B07047C5160008EB
S315080017004FF04022D2F81C385906FBD50A28C2F8F1
S31508001710280800D070474FF04022D2F81C385B06E4
S31508001720FBD50D23C2F82838704700BF4FF040227A
S31508001730D2F81C385B06FBD50A28C2F828083DD023
S315080017404FF04020D0F81C385A06FBD520234FF01E
S315080017501C0C4FF04022C0F8283841FA0CF303F06D
S315080017600F03092BCCBF03F1370003F13000D2F881
S315080017701C385B06FBD5ACF1040CC2F828081CF132
S31508001780040FEAD14FF04022D2F81C385906FBD58F
S315080017900A234FF04021C2F82838D1F81C385A06D7
S315080017A0FBD50D234FF04022C1F82838D2F81C3853
S315080017B05B06FBD50D23C2F8283870474FF0402248
S315080017C0D2F81C385806FBD50D23C2F82838B7E7D7
S315080017D04FF0E0238022C3F8842170474FF0E023BE
S315080017E08022C3F804217047024808B5FFF776FF40
S315080017F0FEE700BF88250008024808B5FFF76EFF18
S31508001800FEE700BFA4250008024808B5FFF766FFF3
S31508001810FEE700BFC4250008024808B5FFF75EFFCB
S31508001820FEE700BFE8250008024808B5FFF756FF9F
S31508001830FEE700BF08260008024808B5FFF74EFF76
S31508001840FEE700BF2C26000800B1704770B57D4C36
S315080018500822064682B0D4F830084FF040257A4B65
S3150800186001211043C4F83008D4F830080190D4F8A0
S3150800187030081043C4F83008D4F830080190D4F87A
S31508001880400840F48020C4F84008D4F84408019081
S315080018900198D3F8240C20F00F0040F00700C3F895
S315080018A0240CD3F8000C20F4403040F40030C3F880
S315080018B0000CD3F8080C40F44030C3F8080CD3F8F1
S315080018C0040C20F48070C3F8040CD3F80C0C20F434
S315080018D0403040F48030C3F80C0CD3F8240C20F0C8
S315080018E0F00040F07000C3F8240CD3F8000C20F484
S315080018F0402040F40020C3F8000CD3F8080C40F44C
S315080019004020C3F8080CD3F8040C20F40070C3F880
S31508001910040CD3F80C0C20F4402040F48020C3F8C3
S315080019200C0C272000F066F9D5F80028474B22F062
S315080019300102C5F80028D5F80028134043F00C0327
S31508001940C5F80038D5F8043823F44053C5F80438E8
S31508001950D5F8083823F43063C5F80838D4F8903831
S3150800196003F03003202B52D04CD8002B54D0102B28
S3150800197046D100F081F9364BA3FB00231B0CC5F8B2
S315080019800C384FF04025D5F8043823F49043C5F8B1
S315080019900438D5F8083823F02A03C5F80838D5F8E6
S315080019A0003843F00103C5F80038D5F81C3803F4AD
S315080019B0C003B3F5C00F0FD06FF07E4401E0013CC1
S315080019C033D04FF47A70FEF73FFCD5F81C3803F491
S315080019D0C003B3F5C00FF2D14FF04023D3F8002867
S315080019E042F48072C3F80028D3F8082842F00102AE
S315080019F0C3F80828D3F8002842F02002C3F80028C4
S31508001A0002B070BD302BFBD1C5F80C68B9E740F2BF
S31508001A102B23C5F80C38B4E700F09AF90C4BA3FB56
S31508001A2000231B0CC5F80C38ABE7D5F8003823F4AF
S31508001A30D073C5F80038D5F8083823F00103C5F87F
S31508001A400838DDE70030024000000240F369FFEF86
S31508001A50C5B3A29138B54FF04023D3F80058D3F850
S31508001A600828D3F81C48E0071AD5D10718D501214C
S31508001A70C3F82018A30730D54FF04023022160078A
S31508001A80C3F8201817D4200701D5D1071AD4A206FF
S31508001A9001D5AB0624D4240601D5280618D438BDAA
S31508001AA0A10704D5D307E7D46307F0D4EBE76107AA
S31508001AB0E9D5D307EBD54FF0402304222007C3F816
S31508001AC02028E4D54FF040230822C3F82028DEE773
S31508001AD00020BDE83840FFF711B96107EBD4D2E71B
S31508001AE00020FFF7C3F8D6E7034B53F83030586A9F
S31508001AF060F0FF0080B2704750260008034B53F889
S31508001B003020136843F0800313607047502600089E
S31508001B10034B53F83020136823F080031360704793
S31508001B2050260008024B53F830309962704700BFC0
S31508001B3050260008034B53F830201C3213685B0606
S31508001B40FCD57047502600084FF0E023C3F8080D6F
S31508001B50704700BFF8B5244D06460F46D5F890489D
S31508001B6044F00064C5F89048D5F8003823F080534F
S31508001B70C5F80038D5F8003898000BD51B4C01E09D
S31508001B80013C2CD04FF47A70FEF75EFBD5F800388E
S31508001B909A00F5D4144DD5F8884804F0FE4444EA72
S31508001BA0074242EA8612C5F88828D5F8003843F075
S31508001BB08053C5F80038D5F8003899000BD40B4C7B
S31508001BC001E0013C0BD04FF47A70FEF73DFBD5F8E7
S31508001BD000389B00F5D5064B01221A60F8BD044B68
S31508001BE000221A60F8BD00BF00300240A18601003D
S31508001BF06432000051B941091C4B00F01F00012254
S31508001C0003EB810302FA00F01860704730B520F044
S31508001C10030C174C4FF0E0234FF0FF0E5CF804500E
S31508001C20D3F80C1DC1F30221032938BF0321033958
S31508001C30CBB201219A4001FA03F3013B134300F0AA
S31508001C4003021B01D20003F0F00393400EFA02F2DE
S31508001C5025EA0205420900F01F002B4381404CF893
S31508001C600430044B03EB8203196030BD80E100E0C9
S31508001C7000E400E000E100E0144AD2F8083803F076
S31508001C800C03042B1FD0082B1BD1D2F80438D2F82A
S31508001C90041803F03F03D2F804084902C0F3881079
S31508001CA04CBF0B490B49B1FBF3F303FB00F0074BA1
S31508001CB0D3F80438C3F3014301335B00B0FBF3F0F8
S31508001CC07047044870470248704700BF003002401A
S31508001CD000127A000090D003194AD2F8083803F0A7
S31508001CE00C03042B29D0082B25D1D2F80418D2F8D6
S31508001CF0040801F03F014302D2F80438104A48BFED
S31508001D001048C3F3881358BF0F48B0FBF1F1D2F857
S31508001D10040801FB03F3C0F3014001304000B3FBA4
S31508001D20F0F3074A0949D2F80828C2F30312885C77
S31508001D3023FA00F07047044BF3E7024BF1E700BFC4
S31508001D400030024000127A000090D003582600089E
S31508001D5008B5FFF791FF074B0749D3F80828D3F8CA
S31508001D600838C2F30312C3F382238A5CCB5CD040E3
S31508001D70D84008BD003002405826000808B5FFF7CD
S31508001D807BFF074B0749D3F80828D3F80838C2F36E
S31508001D900312C3F342338A5CCB5CD040D84008BDFB
S31508001DA00030024058260008BD4B0022BD48D3F833
S31508001DB0001841F0010170B5C3F8001882B0C3F8E5
S31508001DC00828D3F80018B84C08404FF0E021C3F8AB
S31508001DD00008C3F80448D3F80008B44C20F480205F
S31508001DE0C3F80008C3F80C28D1F8243DB04823F4FA
S31508001DF08033C1F8243DD1F8943D23F00103C1F89E
S31508001E00943D0523C1F8982DC1F89C4DC1F8A00D45
S31508001E10C1F8943DD1F8243D43F48033C1F8243DFC
S31508001E20BFF34F8FBFF36F8FC1F8502FD1F8143D12
S31508001E3043F40033C1F8143DBFF34F8FBFF36F8FE0
S31508001E40C1F8842DD1F8804DC4F3C90E04F00705F6
S31508001E50C4F34E34BEFA8EFC04350CF01F0CBFF3E7
S31508001E604F8F04FA05F0734603FA0CF2013B02435E
S31508001E705E1CC1F8602FF7D1013CF2D2BFF34F8F39
S31508001E80D1F8143D43F48033C1F8143DBFF34F8FA6
S31508001E90BFF36F8F4FF6FF00D1F80C2D854B02402C
S31508001EA07F4D1343C1F80C3DD5F8003823F4802341
S31508001EB0C5F80038D5F8003823F48033C5F800385B
S31508001EC0D5F800389A030CD57B4C02E0013C00F0AB
S31508001ED0CF804FF47A70FEF7B7F9D5F800389E032D
S31508001EE0F4D46F4DD5F8003823F48033C5F800389C
S31508001EF0D5F8003843F48023C5F80038D5F80038FB
S31508001F0043F48033C5F80038D5F800389B030CD461
S31508001F10694C02E0013C00F0AC804FF47A70FEF7A1
S31508001F2093F9D5F800389803F4D55D4DD5F80038FF
S31508001F3023F08073C5F80038D5F800389C010CD515
S31508001F405E4C02E0013C00F095804FF47A70FEF793
S31508001F507BF9D5F800389A01F4D4514D584BC5F899
S31508001F600438D5F8003843F08073C5F80038D5F83A
S31508001F70003899010BD4514C01E0013C7BD04FF459
S31508001F807A70FEF761F9D5F800389E01F5D5444B0D
S31508001F904C4DD3F8402842F08052C3F84028D3F875
S31508001FA0403803F080530193019B2B6843F4803338
S31508001FB02B606B68DB030AD4434C01E0013C5BD021
S31508001FC04FF47A70FEF740F96B68D803F6D53D4DA5
S31508001FD02B6843F400332B606C6814F4003440F02B
S31508001FE0B380394E01E0B44247D04FF47A700134D9
S31508001FF0FEF72AF96B689903F5D5294D03214FF4A5
S31508002000C070FFF7A7FDD5F8003C03F00F03062BB9
S3150800201036D9D5F8083823F0F003C5F80838D5F8C6
S3150800202000389B012AD5D5F8083803F00C03082B8D
S315080020300ED0214E01E0B44221D04FF47A7001341B
S31508002040FEF702F9D5F8083803F00C03082BF2D18D
S31508002050134AD2F8003C23F00F0343F00703C2F8F3
S31508002060003CD2F8003C03F00F03072B54D0FEE7E0
S31508002070FEE7FEE7FEE7FEE7FEE7FEE7FEE7FEE72A
S31508002080D5F8003C23F00F0343F00703C5F8003CDE
S31508002090D5F8003C03F00F03072B17D0FEE700BF67
S315080020A000300240FFFFF6FE103000240000022038
S315080020B0250002030003FA05414B4C00A1860100E6
S315080020C0086C40790070004041420F00D5F8083886
S315080020D023F0F003C5F80838D5F800389A0131D549
S315080020E0D5F8083823F0030343F00203C5F8083887
S315080020F0D5F8083803F00C03082B0DD0134C01E073
S31508002100013C20D04FF47A70FEF79EF8D5F80838CF
S3150800211003F00C03082BF3D10D4AD2F8083823F440
S31508002120E05343F4A053C2F80838D2F8083823F429
S31508002130604343F40043C2F8083802B0BDE8704073
S31508002140FFF7CABDFEE7FEE7002456E7414B4C0001
S3150800215000300240000000000000000000000000FF
S315080021600000000000000000000000000000000061
S315080021700000000000000000000000000000000051
S3150800218090F800F06DE9024520F007016FF0000CA9
S3150800219010F0070491F820F040F049804FF0000451
S315080021A06FF00700D1E9002391F840F000F108002C
S315080021B082FA4CF2A4FA8CF283FA4CF3A2FA8CF364
S315080021C04BBBD1E9022382FA4CF200F10800A4FACB
S315080021D08CF283FA4CF3A2FA8CF3E3B9D1E904231F
S315080021E082FA4CF200F10800A4FA8CF283FA4CF356
S315080021F0A2FA8CF37BB9D1E9062301F1200182FA10
S315080022004CF200F10800A4FA8CF283FA4CF3A2FA15
S315080022108CF3002BC6D0002A04BF04301A4612BA23
S31508002220B2FA82F2FDE8024500EBD2007047D1E926
S31508002230002304F00305C4F100004FEAC50514F0B5
S31508002240040F91F840F00CFA05F562EA05021CBF86
S3150800225063EA050362464FF00004A9E700000000A0
S3150800226053746172742041646472657373203D20EF
S315080022702530386C780A0000456E642020204164B9
S315080022806472657373203D202530386C780A000027
S31508002290456E7472792041646472657373203D20BB
S315080022A02530386C780A00004572726F72203D201E
S315080022B0253038780A00000053544D3332463736F5
S315080022C037204E75636C656F2D313434204D6F6E33
S315080022D069746F722076312E30360D0A436F707925
S315080022E072696768742028432920313939392D32B3
S315080022F03030342043534520546F6D616B6F6D61E8
S3150800230069204E43540D0A436F7079726967687481
S315080023102028432920323031362D323032352054A8
S315080023204F50504552532050524F4A4543542E0061
S315080023302D2D2D2D2D2D2D2D2D2D2D2D2D2D2D2DBF
S315080023402D2D2D2D2D2D2D2D2D2D2D2D2D2D2D2DAF
S315080023502D2D2D2D2D2D2D2D2D2D2D2D2D2D2D2D9F
S315080023602D2D2D2D2D2D2D2D2D2D2D2D2D2D2D2D8F
S315080023702D2D2D2D2D2D2D2D2D2D2D2D006C642043
S315080023802020202020202020202020206C6F61641F
S315080023902070726F6772616D202020202020202017
S315080023A020207C20676F5B3C61643E5D20202020F6
S315080023B0202020676F2070726F6772616D006462FB
S315080023C05B3C61643E5B3C6C6E3E5D5D2064756D96
S315080023D0702062797465202020202020202020206B
S315080023E02020207C2064775B3C61643E5B3C6C6EFD
S315080023F03E5D5D2064756D7020776F726400646C55
S315080024005B3C61643E5B3C6C6E3E5D5D2064756D55
S3150800241070206C6F6E6720776F72642020202020F2
S315080024202020207C2065625B3C61643E5D20202084
S3150800243020202020656E74657220627974650065B7
S31508002440775B3C61643E5B3C6C6E3E5D5D20656E11
S3150800245074657220776F7264202020202020202047
S31508002460202020207C20656C5B3C61643E5D20203A
S315080024702020202020656E746572206C6F6E6720A0
S31508002480776F72640066625B3C61643E5B3C6C6EAF
S315080024903E5B3C696E3E5B3C69633E5B3C72703EEC
S315080024A05D5D5D5D5D2066696C6C206279746500B2
S315080024B03F202020202020202020202020202068A7
S315080024C0656C7000000000006C65776562656C6479
S315080024D0776462646266646C6F67003F00000000A0
S315080024E00D060008D50500089D050008E107000847
S315080024F02107000845060008E9090008ED0200085A
S31508002500A502000879020008257800002530386CF5
S31508002510783A253032783A002530386C783A2530C2
S31508002520386C783A000000002530386C783A253047
S3150800253034783A002530386C780000002530327837
S31508002540000000002530347800000000253032787D
S315080025500A00000030313233343536373839000056
S3150800256030313233343536373839616263646566FB
S3150800257000000000303132333435363738394142BD
S3150800258043444546000000004E4D492045786365A2
S315080025907074696F6E206F63637572732E20210ADB
S315080025A00000000048617264204661756C7420451D
S315080025B07863657074696F6E206F63637572732EC6
S315080025C020210A004D656D6F7279204D616E616735
S315080025D0657220457863657074696F6E206F6363F2
S315080025E07572732E20210A00427573204661756C38
S315080025F07420457863657074696F6E206F636375C0
S3150800260072732E20210A00005573616765204661A2
S31508002610756C7420457863657074696F6E206F6396
S31508002620637572732E20210A0000000044656275E6
S3150800263067204D6F6E69746F722045786365707494
S31508002640696F6E206F63637572732E20210A00000E
S3150800265000480040270008000000000001020304AB
S315080026600102030406070809000000000000000034
S3090800267060320000C6
S70508000200F0
