S00E0000726F6D6D6F6E2E737265637E
S3150800000020380220D50000082116000831160008FD
S3150800001000000000000000000000000000000000D2
S315080000200000000000000000000000003D0100087C
S3150800003000000000000000003D0100083D01000826
S315080000403D0100083D0100083D0100083D0100088A
S315080000503D0100083D0100083D0100083D0100087A
S315080000603D0100083D0100083D0100083D0100086A
S315080000703D0100083D0100083D0100083D0100085A
S315080000803D0100083D0100083D0100083D0100084A
S315080000903D0100083D0100083D0100083D0100083A
S315080000A03D0100083D0100083D0100083D0100082A
S311080000B0611800083D0100083D01000829
S315080000C0702700080030022008300220083002207D
S315080000D02034022011488546002103E0104B5B5866
S315080000E0435004310F48104B42189A42F6D30F4A30
S315080000F002E00023136004320D4B9A42F9D301F053
S3150800010059FC00F027F9FEE70A49401A002800DCE6
S3150800011070470949401A0028FCDC7047203802203D
S31508000120702700080030022008300220083002201C
S31508000130203402203200000046000000FEE70000DE
S31508000140532070B5084D2C002500013400F058FFE7
S3150800015020780028F8D10A3000F052FF607802357E
S315080001600028F0D170BDC0460821000870B50C0003
S315080001700D682000802100F07FFC2368AB4211D077
S3150800018004000A4D00F02AFD01F03AFA280001F0B1
S3150800019087FDA04701F034FA054801F081FD01F01A
S315080001A037FA70BD014D6C68ECE7C04600000020C8
S315080001B000000008F0B56122DE4657464E46454621
S315080001C0554BE0B51A54002398469B469A46534B1E
S315080001D00400994683B0200000F08AFC0120210023
S315080001E0404200F093FC00900028F7D0431C00938F
S315080001F00378532BEFD102300190022101A800F0B9
S315080002003BFC00260500019B023B0193022101A845
S3150800021000F032FC3618013DF8D5013EF6B2FD2E47
S3150800022007D84B461B5DC246002B02D14B46F1222E
S315080002301A55009B02215A1C009268461D7800F048
S315080002401BFC0700312D57D0322D0CD0332D41D051
S31508000250372D23D0382D49D0392D51D0373D022D91
S31508000260B9D800251FE0032606217642684600F025
S3150800027003FC5B468046002B36D0013FF619002E5C
S31508000280ECDD070086190221684600F0F5FB3B0005
S3150800029001371870B742F6D1B846DFE70421684639
S315080002A000F0EAFB050059461D4801F027F94146CA
S315080002B01C4801F023F929001B4801F01FF94B4699
S315080002C01B5D002B22D103B0F0BCBB46B246A94643
S315080002D0A046F0BD0821684600F0CEFB04265B4622
S315080002E080467642002BC8D18346C6E70621684673
S315080002F000F0C2FB0500D6E7022604217642B5E7E0
S315080003000821684600F0B8FB0500CCE751460748C7
S3150800031001F0F4F8D7E7C046143002202430022052
S31508000320B0200008C8200008E0200008F8200008CF
S315080003307047C0467047C04610B5040000F06CF818
S315080003400022034B20001A5500F0D2FB10BDC04610
S3150800035024300220F0B5C646154800B501F0A0FCC9
S31508000360FFF7E6FF002000F03BFC8024114B6126D6
S315080003709846114F114DA40501201C603C602E7053
S3150800038000F02EFC43465C607C606E70FFF7D2FF7F
S3150800039001F03EF90A4800F083FE0A4800F01CFE08
S315080003A00020FFF7C9FF002000F05CFAFBE7C04613
S315080003B0000000081C3002200C30022014300220F5
S315080003C00830022008210008F8B50C0006000800CD
S315080003D0150000F075FB80212000276800F04CFB13
S315080003E028602368BB420ED0200000F069FB8021FC
S315080003F02000256800F040FB23689D4200D0F8BD28
S3150800040080204000FBE78020024BB600F3584000EE
S315080004102B60F4E70C30022010B5144A01001318BB
S31508000420187A65280CD11B7B012B10D08900042B68
S3150800043015D0511809690E480A8801F05FF810BDF1
S315080004400C4801F05BF83A2000F0DAFDF7E78B007C
S31508000450D318196908480A7801F050F8EFE75218D6
S31508000460116906480A6801F049F8E8E70C300220E5
S3150800047078230008582300085C230008682300082E
S3150800048070B50C000E6805008021200000F0F4FA13
S315080004902368B34209D0074BA900652259185B198E
S315080004A01A72643A08611A7370BD024BA9005A1889
S315080004B01069F2E70C30022070B50C000E680500D2
S315080004C08021200000F0D8FA2368B34209D0074BF0
S315080004D0A900652259185B191A72633A08611A73DA
S315080004E070BD024BA9005A181069F2E70C300220B9
S315080004F070B50C000E6805008021200000F0BCFADB
S315080005002368B34209D0074BA900652259185B191D
S315080005101A72613A08611A7370BD024BA9005A181B
S315080005201069F2E70C300220F0B5DE464E46454625
S315080005305746E0B585B003AA8046FFF745FF8146D2
S31508000540002800DC82E043460399424A9B00D150CA
S315080005500F230B409A46404B01929B460F243F4877
S31508000560A14300F0CBFF53465900514420200131E6
S3150800057000F0B2FA524610239B1A00934B46A51A6E
S315080005805C1E2600039F4446B0460FE0202120004B
S3150800059000F0BEFB5846397800F0B0FF3300002D56
S315080005A017D00137013D013E002B12D0072DEDD1A2
S315080005B0731C994536D02D21200000F0A9FB397807
S315080005C0584600F09BFF01373300013D013E002BE2
S315080005D0ECD15146434620200231A0461C0000F0CB
S315080005E07BFA4B46009A46469D1A02E0002C1BD021
S315080005F0013C039B5A1C039219780B00203B5E2B87
S3150800060000D92E21300000F083FBAC42EED10A203F
S31508000610A146B04600F0F4FC002D09D0002303994A
S315080006209A469BE72021C7E70A20B04600F0E8FC77
S31508000630019B4344180064230372633B037305B0AC
S31508000640F0BCBB46B246A946A046F0BD014B019395
S31508000650EEE7C0460C3002208C23000884230008ED
S31508000660F0B5DE4657464E464546E0B585B003AA80
S315080006700090FFF7A9FE00286ADD012303990130DF
S3150800068099439843344B0F279B46344B81469846EB
S315080006900F2306009A46009A314C92000391019462
S315080006A0A1500F4053465846994300F027FFF90FCB
S315080006B0C91949108B0059182020013100F00CFA8D
S315080006C00E23B51EDC1B12E0202000F099FC039BCC
S315080006D04046198800F012FF039B270002332E00BC
S315080006E00393002C2DDD023C023D002E14DD062C62
S315080006F0EAD1AB1C4B4522D02D2000F081FC039B90
S315080007004046198800F0FAFE039B2E000233039335
S31508000710023C023D002EEADC0A2000F071FC009A39
S31508000720019B94466344180064230372623B037377
S3150800073005B0F0BCBB46B246A946A046F0BD20208F
S31508000740DBE70A2000F05CFC002DE8DD0399A9E749
S31508000750034B0193E3E7C04684230008942300086B
S315080007600C300220F0B54546DE4657464E46E0B503
S3150800077085B003AA8046FFF727FE00286ADD032313
S315080007800399033099439843344B424699460F23BD
S315080007900F27824606009B46314C9200039101942E
S315080007A0A1500F405B464846994300F0A7FE032335
S315080007B0F9171940C9198910CB0059182020013199
S315080007C000F08AF90C23351FDC1B13E02021404674
S315080007D000F09EFA039B4846196800F08FFE039BBB
S315080007E0270004332E000393002C2CDD043C043D23
S315080007F0002E15DD042CE9D12B1D534521D02D21C2
S31508000800404600F085FA039B4846196800F076FED4
S31508000810039B2E0004330393043C043D002EE9DCBD
S315080008200A2000F0EDFB019B434418006423037281
S31508000830603B037305B0F0BCBB46B246A946A0466A
S31508000840F0BD2021DCE70A2000F0DAFB002DEADD06
S315080008500399A7E7024B0193E5E7C04684230008FE
S315080008600C30022070B5010082B0040000F04EF989
S31508000870009000280CD00378002B0BD14E4B191989
S315080008800A7A642A65D0652A37D02000FFF754FD16
S3150800089002B070BD484E3219117A65293BD0431C07
S315080008A00093437802781902114349BA89B2002B9A
S315080008B02ED1424B1A88002A40D00025023305E083
S315080008C002339A1E12880135002A37D09142F7D191
S315080008D0684600F0F5F83A4BAD00EB58694620003B
S315080008E036199847357E002DCFD03F2000F088FB7B
S315080008F02900344800F002FEC7E7A2009B180A7BCD
S31508000900196920008C4662441A61FFF715FDBFE796
S3150800091002300090CDE72E2B28D0137B0190012BB7
S3150800092027D0042B3BD0802101A800F0A5F8A3000E
S31508000930F6183369188002333361A6E73F2000F0C2
S315080009405FFB01211F4800F0D9FD2000FFF7F4FCEA
S315080009509EE70B7B012B18D0022B1BD0042B00D053
S3150800096093E769462000FFF7FDFE8EE761231372C1
S315080009708BE71B3101A800F07FF8A300F61833694E
S3150800098018703369013333617FE769462000FFF742
S31508000990CBFD7AE769462000FFF762FE75E7A300FC
S315080009A0F618802101A8356900F066F833692860D1
S315080009B00433336169E7C0460C3002201823000867
S315080009C0302300089C230008F0B5C64600B582B05F
S315080009D001AA0C00FFF7F8FC0500200000F070F8EB
S315080009E080212000266800F047F823689B1B5A1EC2
S315080009F093415F420740200000F062F88021200002
S31508000A00266800F039F823689B1B5A1E93415E42FC
S31508000A100640200000F054F82368802198462000FC
S31508000A2000F02AF82368434519D0002813DD6B1E09
S31508000A3073439C463A000023002D09DD01990133D2
S31508000A404C1C01940A7092199D42F7D1F719674414
S31508000A5001380028EED102B080BCB846F0BD0120AE
S31508000A60E5E7C0460F23034018005730092B01D885
S31508000A70303318007047C046026870B5531C05002D
S31508000A80591800200DE0203BDBB21C00413C052C28
S31508000A9014D80132373B8C1A002C0FDD00011818C8
S31508000AA02A601378602BEED81C00303CE6B2092E7B
S31508000AB0EBD8013223008C1A002CEFDC70BDC0463F
S31508000AC003681A78202A06D10133036001335A1EB7
S31508000AD01278202AF9D0704770B505000C1E05DD7E
S31508000AE02800013C00F08CFA002CF9D170BDC046F4
S31508000AF00022044B1A5482009B18034AC00180182E
S31508000B00586070472830022034300220F8B54E4627
S31508000B104546DE465746E0B5274BCE01F618274B25
S31508000B20804699465B5C0D00002B17D18B009A46D0
S31508000B304B4653445F687F239B46B344280000F026
S31508000B4025F90400082810D00D2827D00A28F5D042
S31508000B5000281AD100264B4653445F603000F0BC8B
S31508000B60BB46B246A946A046F8BDB742E6D9082113
S31508000B70404600F0CDF82021404600F0C9F808218B
S31508000B80404600F0C5F8013FD8E70100404600F0AE
S31508000B90BFF87B1C3C701F005B45CFD30D21404638
S31508000BA000F0B6F80A21404600F0B2F84A46BB1BE8
S31508000BB0535500233B70CEE73430022028300220FC
S31508000BC010B5002A09DD0023013A92080132920085
S31508000BD0CC58C45004339342FAD110BD7047C0466E
S31508000BE070B5114A114EC1018300D3188D195D6085
S31508000BF0DD605D610D0080350024AE19DE612426B6
S31508000C001454121894550A4E5C6589199962196329
S31508000C109963482154540431AD19545404311D6460
S31508000C20545400F02DFD70BD343102209832022054
S31508000C309831022070B5040000F03CFEFF231B0229
S31508000C40184220D0C3B2132B1ED0112B21D0194A1B
S31508000C50A10051184D692B70CB69681C48619842F0
S31508000C6001D34B684B61135D5BB2002B03DB135D4D
S31508000C700133DBB21355135D532B04D948231219DC
S31508000C80D15C00290ED070BD50220A480419A3541D
S31508000C90F9E750220021074B20001B19995400F050
S31508000CA015FEF0E71331D15404332000D15400F077
S31508000CB00DFEE8E7343102204C2270B5134D0400CE
S31508000CC02B18995C00291BD124229B5C002B14D07D
S31508000CD08300EB18196B186C4A1C1A630978824250
S31508000CE001D39A6A1A63200000F00CFE24222C19FC
S31508000CF0A35C013BDBB2A35470BD00F0F3FDFBE738
S31508000D0000209854200000F0FDFDF5E7343102205C
S31508000D10F8B5CE464746894680B5071E27DB8300C9
S31508000D2098462424184EF518F21902E06B6D002B2C
S31508000D3021D1135D5BB2002BF8DB43464846F31816
S31508000D40996B4A1C0870196C9A638A4201D39A6A8D
S31508000D509A6300F055FC2422F619B35C0133DBB222
S31508000D60B3545023F35C002B09D000F051FCC0BCEF
S31508000D70B946B046F8BD0021E86D9847D4E7380073
S31508000D8000F0A4FDF1E7C04634310220F8B5204F43
S31508000D9004003B5CDEB2002B11D185007D196B6D1A
S31508000DA0002B0AD03A5C002A01D006E06B6D0121BF
S31508000DB0E86D98473B5D002BF8D03000F8BD00F091
S31508000DC01FFC3B5D013BDBB23B5500F021FC3B5D64
S31508000DD02A2B10D848233D19EA5C002A0BD000229A
S31508000DE0EA5400F00DFC4C2311222000EA5400F0CE
S31508000DF06DFD00F00DFCA4003C19E268531C167842
S31508000E00E269E3609342D8D36368E360D5E7C046F6
S31508000E1034310220014B185C7047C0463431022039
S31508000E202422024B1B18985C7047C04634310220B6
S31508000E30012804DC024B80001818C265416570471A
S31508000E40343102200020704770B50C00074D0A297E
S31508000E5005D02B68E1B21868FFF75AFF70BD2B68FA
S31508000E600D211868FFF754FFF3E7C046003002204B
S31508000E7010B5044C23681868FFF788FF0028F9D0D6
S31508000E8010BDC04600300220F8B50E1E0CD0150065
S31508000E90064C571823681868FFF778FF0028F9D01A
S31508000EA028700135BD42F5D13000F8BD003002206A
S31508000EB0F0B5C646884600B500291BD014000F4D6C
S31508000EC0561807E02B68390018680134FFF720FF29
S31508000ED0A6420FD027780A2FF4D12B680D2118685F
S31508000EE0FFF716FF2B68390018680134FFF710FF63
S31508000EF0A642EFD1404680BCB846F0BD003002207D
S31508000F0070B5050008000C0000F0F4FA002800D0BF
S31508000F10034C2900200023699847012070BDC0466C
S31508000F20BC33022070B5050008000C0000F0E2FA98
S31508000F30002800D0074C280000F016FF2A00010000
S31508000F4063692000984705000A212000236998470D
S31508000F50280070BDBC33022010B5002802D0836873
S31508000F60984710BD0048FAE79C330220030010B5E5
S31508000F70101E03D01A00C468A04710BD0048F9E740
S31508000F809C33022070B505000C00181E08D0624379
S31508000F90C36811002A009847210000F013FF70BDAE
S31508000FA00048F4E79C330220F8B5070018000E0045
S31508000FB015001C0000F09EFA002800D0054C2900F8
S31508000FC03A007143636920009847310000F0FAFE41
S31508000FD0F8BDC046BC33022070B5050000F0C4FE5B
S31508000FE0064C2A000100636BE06B98470500200059
S31508000FF00A21236B20309847280070BD9C330220B5
S3150800100070B50500044C200000F074FA2900200091
S3150800101023699847012070BDBC33022010B500280B
S3150800102002D08369984710BD0048FAE7BC3302200E
S3150800103010B5034B1B681868FFF7ECFE10BDC046D9
S3150800104000300220014B4001C01870479C33022033
S31508001050022813D80B4B42019B18012252425A60B0
S31508001060094A9A60094ADA60094A1A61094A5A61BC
S31508001070094A9A61094A1268DA61704701204042B2
S31508001080FBE7C0469C330220710E0008890E000853
S31508001090490E0008B10E0008450E0008003002206F
S315080010A0602294460A4BF0B518600A4B0A4F0B4E5D
S315080010B00B4D0C4C0C499C44613A5A609F60DE60AB
S315080010C01D615C619961D86120336345F5D1F0BD36
S315080010D0003002209C330220710E0008890E000899
S315080010E0490E0008B10E0008450E0008F0B5DE46A8
S315080010F057464E464546E0B587B00193139B924640
S31508001100814698460F0000F0E3FE03AB9B46534624
S315080011105A465B5C56461370129A050001244B46E4
S31508001120924600E005009F420BD83900280000F0DF
S31508001130CFFE02AA735C0134033213552B000C2C24
S31508001140F0D1019B109A56469F1A012A4CD1119B41
S31508001150012B45D141462D20D047012302259A4629
S31508001160BC421EDA119A2023012A00D13023250019
S31508001170DBB21C00A946414620000135B047AF4204
S31508001180F9DC52464C4600230132BC4201DA013FE3
S315080011903B1B9A46924453465F1C109B3D00012B0D
S315080011A008D15746119B0137002B03D141462D2004
S315080011B0B0476F1C5B46013C1D1923004446984600
S315080011C028782100B0472B00013D9B45F8D14446BD
S315080011D0E01907B0F0BCBB46B246A946A046F0BD2A
S315080011E0119B01259A46BBE7109B9A46BC42B9DB80
S315080011F05F1CDFE710B5FFF703FF10BDF0B55746D4
S315080012004E464546DE46E0B58246107888461600C4
S315080012109946002787B0541C00282FD0AF4B9B4611
S3150800122007E04146D04726000137013430780028C8
S3150800123024D02528F5D17278302A27D01400B51C79
S31508001240303C002128000023092C28D814009A00D5
S31508001250D218520012191300020014780130220025
S31508001260303A0600303B092AF1D9221E1AD0253A0F
S31508001270532A1ED85846920082589746380007B017
S31508001280F0BCBB46B246A946A046F0BDB278F51CEE
S315080012901400303C012128000023092CD6D92E0041
S315080012A0002AE4D13400013EC0E741462520D04754
S315080012B00137741CBAE74D4601CD002800DAA4E0D0
S315080012C042460392524602920022019100920A2156
S315080012D0834AFFF70BFFA9463F18741CA6E7327826
S315080012E0751C002ACAD0583AD2B2202A13D87D488B
S315080012F09200825897464C4601CC794AA146444604
S315080013000191039400215446009102942032103131
S31508001310FFF7ECFE3F18B41C2E0087E73278751CE1
S31508001320002AABD0583AD2B2202AF4D86E48920096
S31508001330825897464D46424601CD0392524602923E
S315080013400022019100920821654AFFF7CFFEA946BF
S315080013503F18741C6AE7494604C9107805910028A5
S3150800136000D1B9E0D21BDD19531CA9465546B24631
S315080013704646984643463100DC19A8474B4620782E
S315080013800137DB1B0028F5D1B0461C005646AA4695
S31508001390251E0EDDB1464646A0465446310020209D
S315080013A0013DA047002DF9D1A2464446B0464E4617
S315080013B03F19059B741C994638E74D4601CD7FE7D2
S315080013C042464D4601CD03925246029200220092B1
S315080013D0464A01911021FFF789FEA9463F18741C59
S315080013E024E742464D4601CD039252460292002218
S315080013F0019100923E4AEDE74D4601CD4146C0B205
S31508001400D047A9460137741C10E742460392524654
S31508001410404202920191012258E74A4601CA914682
S31508001420002814DB4246039252460292002201919A
S3150800143000920A212A4AFFF759FEB41C3F182E00CB
S31508001440F4E6484604C8814610B21204EAD5424674
S31508001450039252464042029201910122E8E74C4625
S3150800146001CC1F4AA1460004000C4446019103948E
S3150800147000215446009102940C3248E74C4601CCB0
S31508001480174AA146F1E74A4601CA9146CAE74A46BB
S3150800149001CA91464246039252460292002201919F
S315080014A0009208210E4AFFF721FEB41C3F182E00B1
S315080014B0BCE64A4601CA00049146000CB2E74C460F
S315080014C001CC074A0004A146000C18E74A4601CA9F
S315080014D000049146000CDDE71C0059E7A423000828
S315080014E0FC250008F42400087825000808260008CA
S315080014F01C260008434258417047C0460FB400B541
S3150800150083B004AB04CB002103480193FFF776FEB2
S3150800151003B008BC04B01847F511000810B504005C
S3150800152000F018F80A2C00D010BD0D2000F012F8B3
S31508001530FAE7C0460FB400B583B004AB04CB00216C
S3150800154003480193FFF75AFE03B008BC04B01847D6
S315080015501D150008802209490B681A42FCD0084B61
S3150800156018600A2800D07047802204490B681A427E
S31508001570FCD00D22024B1A60F5E7C0461C44004019
S3150800158028440040F8B50D00FFF7E4FF80221A4909
S315080015900B681A42FCD020231C210F278022174EE5
S315080015A0154833602B000B413B401C003034092B97
S315080015B001DD37331C0003681A42FCD00439346055
S315080015C00B1DEFD180220C490B681A42FCD00A2267
S315080015D00A4B09491A6076320B681A42FCD00D226A
S315080015E0064B05491A6073320B681A42FCD00D2265
S315080015F0024B1A60F8BDC0461C440040284400400F
S315080016008022024B52051A607047C04680E100E00E
S315080016108022024B52051A607047C04600E100E07E
S3150800162010B50248FFF786FFFEE7C04630260008D9
S3150800163010B50248FFF77EFFFEE7C0464C260008B5
S3150800164010B50248FFF776FFFEE7C0466C2600088D
S3150800165010B50248FFF76EFFFEE7C0469026000861
S3150800166010B50248FFF766FFFEE7C046B026000839
S3150800167010B50248FFF75EFFFEE7C046D42600080D
S31508001680F0B585B0002801D005B0F0BD802301244F
S315080016905D4A9B021168A0200B4313605B4A302603
S315080016A013688027234313602022C0050368584D1A
S315080016B0B343134303602B68564933432B600B68C7
S315080016C01C3A9343544A0B601368B343203E334392
S315080016D013600368B036B3433B43036008202B68A6
S315080016E033432B600B6883430B60402113684B48D8
S315080016F0B3430B4313604A4B4A491A681140802288
S3150800170052000A431A601A6847491140802252015A
S315080017100A431A60FEF7F8FC444A454913684548E7
S31508001720A34313600B6803400B601368424901A882
S315080017300B400C210B431360404A414913680B4088
S315080017400F2113603F4A13688B43136000F0F2FAC7
S315080017503D4B1B681B079B0F022B51D0032B40D018
S31508001760012B4FD00398314B1B681B043FD5E1234F
S31508001770DB019C46E12160444000490200F022FB5F
S31508001780324A03070240580F1043314B284A186063
S3150800179013683049254C0B402A211360274B1C201F
S315080017A01A688A431A601A682B49D200D2081A6046
S315080017B01A681140A02212050A431A60802322687B
S315080017C09B0513432360902322685B001343236021
S315080017D00222012100F06AFA0122236813432360DA
S315080017E052E78020114B00021B681B04BFD4E1237B
S315080017F01B029C46E1216044490200F0E3FAC4E773
S315080018001648B0E70198AEE73C1002403410024093
S3150800181008000050040000500C000050400D030062
S3150800182020000050FFF0FFFFFF0FFFFF00440040BD
S3150800183004440040FFCFFFFFF3E9FFEF08440040F0
S31508001840FFF4FFFF2C44004054100240F0FF000054
S315080018500C440040FFB7FFFFFFFFFFF10024F40030
S31508001860114B70B51C68114B1E68114B1D6820235F
S3150800187023420DD033420BD00020FFF7DBF980233B
S3150800188023420BD0334209D00020FFF715FA70BD6A
S31508001890EB00F4D50020FFF7CDF9F0E72B02F6D5DB
S315080018A00020FFF709FAF2E7004400401C44004014
S315080018B008440040034BC000C35803485B6A1843FA
S315080018C080B27047F826000800FFFFFF044BC000EF
S315080018D0C258802391681B040B4393607047C04627
S315080018E0F82600088021054BC000C3581A688A43A9
S315080018F01A609A6802490A409A607047F8260008F2
S31508001900FFFF7FFF024BC000C35899627047C0466D
S31508001910F82600088021044BC000C2581C32136800
S315080019201942FCD07047C046F82600083822100035
S315080019301B4B70B51B6818401A4206D1194B1A483A
S315080019401B689B045B0F184170BD08280DD0102832
S315080019500DD0203843425841C02340429B001840CE
S31508001960FA23DB019C466044EEE71048ECE7104B8F
S315080019701C68E3436106490F650401316D0E9B0738
S3150800198008D0094800F01EFA6843610F013100F0DB
S3150800199019FAD9E7054800F015FA6843F5E7C0468D
S315080019A008100240001002400024F40000127A00D9
S315080019B00C1002408022F0B5C646A14B1205A1497B
S315080019C000B51A60A04BA14A1E680B68A0481A40C9
S315080019D080239B0013430B6080210268C9006123A2
S315080019E00A4204D106E0013B002B00D1CBE0026895
S315080019F00A42F8D1382333409846102B00D1D2E05A
S31508001A00002B00D0D3E09349934A0B681A408023F1
S31508001A10DB0113430B60914B91491A680A401A601F
S31508001A201B68904A9B045B0F1A4113008E4A136089
S31508001A3080268A4D8D4A2B68B60413402B602B6886
S31508001A4033420CD08A4C03E0013C002C00D19AE0CA
S31508001A50FA208000FEF758FB2B683342F4D1854BF9
S31508001A60854A7E4D1A608022296852040A432A60F4
S31508001A7080228026196852050A431A602B68B60424
S31508001A8033420BD17A4C02E0013C002C7BD0FA2081
S31508001A908000FEF739FB2B683342F5D00622774DD6
S31508001AA02B681A4217D1072202212B6893430B434E
S31508001AB02B602B681A40022A0DD00726704C02E0CC
S31508001AC0013C002C5FD0FA208000FEF71DFB2B6836
S31508001AD03340022BF4D1E0215B4D6A4A2B68C901D9
S31508001AE01A400A432A605C4A01241A401143664A8E
S31508001AF029601340654A382613432B6038232A6821
S31508001B001340102B04D199E0614B01349C423AD022
S31508001B10FA208000FEF7F8FA2B683340102BF3D131
S31508001B200723564E32681A40022A1AD90221326809
S31508001B309A430A43326032681340022B11D0504B45
S31508001B40651C9C421FD0072403E0514B01359D427A
S31508001B5019D0FA208000FEF7D7FA33682340022B03
S31508001B60F3D1394B47491A680A401A601C68FFF7CF
S31508001B70DDFE2305474A1B0F9B009B581F22134077
S31508001B80D840394B18600121434B1A680A431A603A
S31508001B9080221B68414B520519680A431A601B6864
S31508001BA080BCB846F0BD0D3B3340022B3DD02B4DD3
S31508001BB02B4A2B68802713402B6080232A685B00FA
S31508001BC013432B602B68FF003B420BD1284C02E0E5
S31508001BD0013C002CD7D0FA208000FEF795FA2B6836
S31508001BE03B42F5D01B491C4A0B681A408023DB018F
S31508001BF013430B604346102B00D019E707233822FE
S31508001C00114D9E432E602B681A4200D110E73826E4
S31508001C101B4CFA208000FEF777FA2B681E4200D18B
S31508001C2006E7013C002CF4D1ADE70A490A4A0B68DD
S31508001C301A408023DB0113430B60DFE700246FE7BC
S31508001C4008ED00E00070004008100240FFF9FFFFB1
S31508001C501470004004100240FF80FFFF001002408D
S31508001C60FFC7FFFF0024F40004300220FFFFFFFE39
S31508001C70D10700000C100240020802210020024091
S31508001C80414B4C00FF8FFFFFF880FFFF02700000FA
S31508001C90424B4C0008270008401002403C10024006
S31508001CA0014B18607047C04608ED00E0F0B5002902
S31508001CB00AD11C4A430994461F2210401E3A824004
S31508001CC09B0063441A60F0BD03210500FF24164BF0
S31508001CD08D439C460140C9008C40144B65442E68D0
S31508001CE01B68A6435B055B0F1F1C042B17D9012431
S31508001CF02300053FFFB2BB40BA40013B1343DBB2AA
S31508001D009B010B4ADBB28B4094461F2233432B6060
S31508001D104309104084409B0063441C60D3E70527B1
S31508001D20E5E7C04680E100E000E400E00CED00E0F5
S31508001D3000E100E070B50500084B1C68FFF7F6FDEA
S31508001D406404074A640F074BA40014191B68226C25
S31508001D506B60D3402860AB6070BDC0460810024077
S31508001D60082700080430022010B583070AD00300AC
S31508001D70032102E001330B4205D01A78002AF9D173
S31508001D80181A10BD030019680C4A0D4C8A188A43A4
S31508001D9022420FD15968094A04338A188A432242D3
S31508001DA008D15968054A04338A188A432242F1D071
S31508001DB000E001331A78002AFBD1E1E7FFFEFEFEB8
S31508001DC080808080002243088B4274D303098B42AB
S31508001DD05FD3030A8B4244D3030B8B4228D3030CED
S31508001DE08B420DD3FF22090212BA030C8B4202D38F
S31508001DF01212090265D0030B8B4219D300E0090AB7
S31508001E00C30B8B4201D3CB03C01A5241830B8B42BF
S31508001E1001D38B03C01A5241430B8B4201D34B03A8
S31508001E20C01A5241030B8B4201D30B03C01A52410D
S31508001E30C30A8B4201D3CB02C01A5241830A8B4292
S31508001E4001D38B02C01A5241430A8B4201D34B027B
S31508001E50C01A5241030A8B4201D30B02C01A5241DF
S31508001E60CDD2C3098B4201D3CB01C01A5241830993
S31508001E708B4201D38B01C01A524143098B4201D3CD
S31508001E804B01C01A524103098B4201D30B01C01AF8
S31508001E905241C3088B4201D3CB00C01A5241830872
S31508001EA08B4201D38B00C01A524143088B4201D39F
S31508001EB04B00C01A5241411A00D2014652411046FF
S31508001EC07047FFE701B5002000F0F0F802BDC046F4
S31508001ED00029F7D076E7704703460B437FD40022E4
S31508001EE043088B4274D303098B425FD3030A8B42A0
S31508001EF044D3030B8B4228D3030C8B420DD3FF220A
S31508001F00090212BA030C8B4202D31212090265D0D7
S31508001F10030B8B4219D300E0090AC30B8B4201D38A
S31508001F20CB03C01A5241830B8B4201D38B03C01AD1
S31508001F305241430B8B4201D34B03C01A5241030B48
S31508001F408B4201D30B03C01A5241C30A8B4201D3F9
S31508001F50CB02C01A5241830A8B4201D38B02C01AA4
S31508001F605241430A8B4201D34B02C01A5241030A1B
S31508001F708B4201D30B02C01A5241CDD2C3098B4200
S31508001F8001D3CB01C01A524183098B4201D38B017D
S31508001F90C01A524143098B4201D34B01C01A524120
S31508001FA003098B4201D30B01C01A5241C3088B4265
S31508001FB001D3CB00C01A524183088B4201D38B0050
S31508001FC0C01A524143088B4201D34B00C01A5241F2
S31508001FD0411A00D201465241104670475DE0CA0FC9
S31508001FE000D04942031000D34042534000229C4689
S31508001FF003098B422DD3030A8B4212D3FC22890193
S3150800200012BA030A8B420CD3890192118B4208D368
S31508002010890192118B4204D389013AD0921100E0CA
S315080020208909C3098B4201D3CB01C01A52418309DE
S315080020308B4201D38B01C01A524143098B4201D30B
S315080020404B01C01A524103098B4201D30B01C01A36
S315080020505241C3088B4201D3CB00C01A52418308B0
S315080020608B4201D38B00C01A5241D9D243088B4206
S3150800207001D34B00C01A5241411A00D201466346A9
S3150800208052415B10104601D34042002B00D549420D
S31508002090704763465B1000D3404201B5002000F04C
S315080020A005F802BD0029F8D016E770477047C04604
S315080020B053746172742041646472657373203D20A1
S315080020C02530386C780A0000456E6420202041646B
S315080020D06472657373203D202530386C780A0000D9
S315080020E0456E7472792041646472657373203D206D
S315080020F02530386C780A00004572726F72203D20D0
S31508002100253038780A00000053544D3332473042A0
S3150800211031204E75636C656F2D3634204D6F6E69B0
S31508002120746F722076312E30360D0A436F707972CD
S31508002130696768742028432920313939392D3230A6
S3150800214030342043534520546F6D616B6F6D616960
S31508002150204E43540D0A436F70797269676874207C
S3150800216028432920323031362D3230323520544F2B
S3150800217050504552532050524F4A4543542E002D35
S315080021802D2D2D2D2D2D2D2D2D2D2D2D2D2D2D2D71
S315080021902D2D2D2D2D2D2D2D2D2D2D2D2D2D2D2D61
S315080021A02D2D2D2D2D2D2D2D2D2D2D2D2D2D2D2D51
S315080021B02D2D2D2D2D2D2D2D2D2D2D2D2D2D2D2D41
S315080021C02D2D2D2D2D2D2D2D2D2D2D006C64202002
S315080021D020202020202020202020206C6F616420D1
S315080021E070726F6772616D202020202020202020C9
S315080021F0207C20676F5B3C61643E5D2020202020A8
S315080022002020676F2070726F6772616D0064625B71
S315080022103C61643E5B3C6C6E3E5D5D2064756D7032
S31508002220206279746520202020202020202020206C
S3150800223020207C2064775B3C61643E5B3C6C6E3E90
S315080022405D5D2064756D7020776F726400646C5BE9
S315080022503C61643E5B3C6C6E3E5D5D2064756D70F2
S31508002260206C6F6E6720776F7264202020202020F4
S3150800227020207C2065625B3C61643E5D2020202036
S31508002280202020656E746572206279746500657712
S315080022905B3C61643E5B3C6C6E3E5D5D20656E74C6
S315080022A0657220776F72642020202020202020204D
S315080022B02020207C20656C5B3C61643E5D202020EC
S315080022C020202020656E746572206C6F6E672077FB
S315080022D06F72640066625B3C61643E5B3C6C6E3E9A
S315080022E05B3C696E3E5B3C69633E5B3C72703E5D7F
S315080022F05D5D5D5D2066696C6C2062797465003F82
S315080023002020202020202020202020202020686532
S315080023106C700000000000006C65776562656C648F
S31508002320776462646266646C6F67003F0000000051
S31508002330F1040008B90400088104000865070008CC
S315080023406106000829050008C9090008B501000842
S315080023506D01000841010008257800002530386C19
S31508002360783A253032783A002530386C783A253074
S31508002370386C783A000000002530386C783A2530F9
S3150800238034783A002530386C7800000025303278E9
S31508002390000000002530347800000000253032782F
S315080023A00A000000AA120008B2120008B2120008B9
S315080023B0B2120008B2120008B2120008B2120008DF
S315080023C0B2120008B2120008B2120008B2120008CF
S315080023D0B2120008B2120008B2120008B2120008BF
S315080023E0B2120008B2120008B2120008B2120008AF
S315080023F0B2120008B2120008B2120008B21200089F
S31508002400B2120008B2120008B2120008B21200088E
S31508002410B2120008B2120008B2120008B21200087E
S31508002420B2120008B2120008B2120008B21200086E
S31508002430B2120008B2120008B2120008B21200085E
S31508002440B2120008B2120008B2120008B21200084E
S31508002450B2120008B2120008B2120008B21200083E
S31508002460B2120008B2120008B2120008B21200082E
S31508002470E2130008B2120008B2120008B2120008ED
S31508002480B2120008B2120008B2120008B21200080E
S31508002490B2120008B2120008B2120008F8130008B7
S315080024A0B6120008B2120008B2120008B2120008EA
S315080024B0DE120008B6120008B2120008B2120008AE
S315080024C01C130008B2120008B212000834130008E0
S315080024D0B2120008B2120008B21200085613000819
S315080024E0B2120008BA130008B2120008B2120008A5
S315080024F0C0130008BE1400081613000816130008B7
S3150800250016130008161300081613000816130008F9
S3150800251016130008161300081613000816130008E9
S3150800252016130008421400081613000816130008AC
S31508002530161300081613000842140008161300089C
S3150800254016130008161300081613000816130008B9
S31508002550CC140008161300081613000816130008F2
S315080025601613000816130008B214000816130008FC
S31508002570161300085E140008F61200081613000861
S315080025801613000816130008161300081613000879
S315080025901613000816130008161300081613000869
S315080025A016130008161300081A1400081613000854
S315080025B01613000816130008161300081A14000844
S315080025C01613000816130008161300081613000839
S315080025D0161300088E1400081613000816130008B0
S315080025E016130008161300081613000886140008A8
S315080025F016130008161300087C140008303132330D
S3150800260034353637383900003031323334353637D9
S315080026103839616263646566000000003031323320
S3150800262034353637383941424344454600000000C0
S315080026304E4D4920457863657074696F6E206F63E7
S31508002640637572732E20210A0000000048617264C7
S31508002650204661756C7420457863657074696F6E81
S31508002660206F63637572732E20210A004D656D6FA6
S315080026707279204D616E6167657220457863657071
S3150800268074696F6E206F63637572732E20210A005A
S31508002690427573204661756C74204578636570745D
S315080026A0696F6E206F63637572732E20210A0000AE
S315080026B05573616765204661756C74204578636556
S315080026C07074696F6E206F63637572732E20210AAA
S315080026D0000000004465627567204D6F6E69746F6F
S315080026E07220457863657074696F6E206F636375D1
S315080026F072732E20210A0000004400401C020200CA
S3150800270000000000000000000000000000000000BB
S3150800271000000000000000000000000000000000AB
S315080027200000000000000000010000000200000098
S315080027300300000004000000060000000700000077
S31508002740080000000900000000000000000000006A
S315080027500000000000000000010000000200000068
S315080027600300000004000000000000000000000054
S30D08002770983302200024F4004E
S705080000C032
