S00E0000726F6D6D6F6E2E737265637E
S3150800000070760120D5010008BD170008CD17000835
S31508000010DD170008ED170008FD17000800000000AE
S315080000200000000000000000000000002102000897
S315080000300D1800080000000021020008210200082F
S3150800004021020008210200082102000821020008F6
S3150800005021020008210200082102000821020008E6
S3150800006021020008210200082102000821020008D6
S3150800007021020008210200082102000821020008C6
S3150800008021020008210200082102000821020008B6
S3150800009021020008210200082102000821020008A6
S315080000A02102000821020008210200082102000896
S315080000B02102000821020008210200082102000886
S315080000C02102000821020008210200082102000876
S315080000D02102000821020008D5190008210200089B
S315080000E02102000821020008210200082102000856
S315080000F02102000821020008210200082102000846
S315080001002102000821020008210200082102000835
S315080001102102000821020008210200082102000825
S315080001202102000821020008210200082102000815
S315080001302102000821020008210200082102000805
S3150800014021020008210200082102000821020008F5
S3150800015021020008210200082102000821020008E5
S3150800016021020008210200082102000821020008D5
S3150800017021020008210200082102000821020008C5
S30D08000180210200082102000813
S315080001C0302200080070012004700120047001200C
S315080001D070720120DFF830D0002103E00B4B5B582A
S315080001E0435004310A480B4B42189A42F6D30A4A3E
S315080001F002E0002342F8043B084B9A42F9D301F087
S3150800020081FC00F01BF97047707601203022000847
S315080002100070012004700120047001207072012012
S31508000220FEE7A0F16400002800DC7047A0F1660034
S315080002300028FBDC7047000038B5084C532000F056
S315080002404BFF254614F8010F0028F8D10A2000F0C4
S3150800025043FF6078AC1C0028F1D138BD781E000831
S3150800026038B50C4620468021256800F055FC2368E1
S31508000270AB420ABF094B04465C6800F0F5FC01F086
S3150800028091FA064801F0F4FBA04701F08BFA0448FE
S3150800029001F0EEFBBDE8384001F08ABA0000002004
S315080002A0000000082DE9F04F554B564F61220025F6
S315080002B01A5483B004462E46A8464FF0F109204644
S315080002C000F064FC21464FF0FF3000F06FFC009010
S315080002D00028F7D0431C00930378532BEFD1831CD7
S315080002E0022101A8019300F017FC019B023B8246FC
S315080002F001934FF0000B022101A800F00DFCBAF1A2
S31508000300010A8344F7D50BF1FF33DBB2FD2B04D882
S315080003103B5D33BB07F80490A846009B5A1C009225
S315080003200221684693F800A000F0F6FBBAF1310FF7
S31508000330834653D0BAF1320F15D0BAF1330F43D0F2
S31508000340BAF1370F2AD0BAF1380F41D0BAF1390FBE
S3150800035048D0AAF1370ABAF1020FB0D84FF000090F
S3150800036021E0A846D9E76FF002050621684600F0A5
S31508000370D3FB0BF1FF332B44002E08BF0646002B98
S315080003800546E6DD00EB030B0221684600F0C4FBD8
S315080003902B4601355D451870F6D1DAE70421684623
S315080003A000F0BAFB81463146174801F0B9F92946EB
S315080003B0164801F0B5F91648494601F0B1F93B5D12
S315080003C0B3B903B0BDE8F08F6FF003050821CDE798
S315080003D06846062100F0A0FB8146E4E76FF00105B8
S315080003E00421C3E76846082100F096FB8146DAE750
S315080003F04146084801F094F903B0BDE8F08F00BF04
S315080004000C70012018700120201E0008381E0008F4
S31508000410501E0008681E0008704700BF704700BFDE
S3150800042010B5044600F062F8034B00221A55204620
S31508000430BDE8104000F0AABB1870012008B51148A5
S31508000440114C01F015FBFFF7E7FF002000F00EFC4A
S315080004500E4A0F484FF00053612123600360117064
S31508000460FFF7DCFF01F0A4F90A4800F08BFE0A4802
S3150800047000F01CFE0020FFF7D3FF002000F052FA20
S31508000480FBE700BF00000008147001200C70012073
S315080004900870012004700120781E0008F8B50C4683
S315080004A006460846154600F05DFB8021204627686B
S315080004B000F032FB28602368BB420DD0204600F0CE
S315080004C051FB80212046256800F026FB23689D42C3
S315080004D008BF4FF48070F8BD034B53F826302B60E5
S315080004E04FF48070F8BD00BF0870012008B5154BA1
S315080004F01A180146107965280DD1127A012A03EBDC
S31508000500810110D0042A15D0C9680F480A88BDE8A9
S31508000510084001F005B90D4801F002F9BDE80840A8
S315080005203A2000F0D9BDC96809480A78BDE80840EC
S3150800053001F0F6B8C96807480A68BDE8084001F03E
S31508000540EFB800BF08700120E4200008C4200008A6
S31508000550C8200008D420000870B50D46044680213E
S3150800056028462E6800F0D8FA2B68B342074B08BF16
S3150800057003EB84014FEA84021C4408BFC86813448D
S315080005806521012221712272D86070BD0870012090
S3150800059070B50D460446802128462E6800F0BCFA40
S315080005A02B68B342074B08BF03EB84014FEA84026A
S315080005B01C4408BFC86813446521022221712272AF
S315080005C0D86070BD0870012070B50D4604468021BC
S315080005D028462E6800F0A0FA2B68B342074B08BFDE
S315080005E003EB84014FEA84021C4408BFC86813441D
S315080005F06521042221712272D86070BD087001201D
S315080006002DE9F04F85B003AA0646FFF747FF3C4B96
S315080006100193071E6ADD039943F82610DFF8E89070
S3150800062001F00F0A21F00F01364801F079F80AEBBC
S315080006304A010131202000F09FFA039B7C1ECAF173
S315080006401002009203F10108CAF10F05A3460EE055
S3150800065000F0B8FB18F8011C484601F061F85B4643
S3150800066005B308F10108013D0BF1FF3BD3B1072D96
S315080006704FF020013046EBD10BF101039F424FF0BA
S315080006802D0100D1202100F09DFB18F8011C4846D9
S3150800069001F046F85B4608F10108013D0BF1FF3B06
S315080006A0002BE4D10AF10201202000F065FA009B34
S315080006B0FD1A01E0BCB1013C039B5A1C0392197850
S315080006C0A1F120035E2B88BF2E21304600F07AFB6D
S315080006D0AC422746EED10A2000F0FEFC35B103995C
S315080006E04FF0000A9EE70A2000F0F6FC019B33440F
S315080006F01E46642201233271337205B0BDE8F08FBD
S3150800070008700120F0200008F82000082DE9F04FB5
S3150800071085B003AA8146FFF7C1FE002873DD039B57
S315080007203A4ADFF8F0A03A4F019223F0010101306E
S3150800073020F0010842F82910039103F00E0B4646F3
S3150800074021F00F01504600F0EBFF0BEBDB7149106F
S3150800075001EB81010131202000F00EFACBF10E04E5
S31508000760B51E13E000F0B8FC039B3846198800F064
S31508000770D7FF039BB4F1000B03F1020303933BDDA0
S31508000780002EA4F10204A5F102051ADD062C4FF08D
S3150800079020002E46E6D1AB1C43454FF02D001FD056
S315080007A000F09AFC039B3846198800F0B9FF039BB2
S315080007B0002E03F102030393A4F10204A5F1020536
S315080007C0E4DC0A2000F088FC019B4B44994664222D
S315080007D0022389F8042089F8083005B0BDE8F08FAF
S315080007E0202000F079FC039B3846198800F098FF12
S315080007F0039B02330393C3E70A2000F06DFC002D28
S31508000800E2DD03999CE7014B0193DDE708700120BF
S3150800081000210008F02000082DE9F04F83B001AA56
S315080008208246FFF73BFE002874DD019BDFF8F09057
S315080008303A4F23F00301033020F0030849F82A1041
S31508000840019103F00C0B464621F00F01384600F0E3
S3150800085067FFBBF1000F5946B8BF0BF103018910BA
S3150800086001EBC1010131202000F086F9CBF10C041F
S31508000870351F13E000F0A6FA019B3846196800F008
S315080008804FFF019BB4F1000B03F1040301933ADD1A
S31508000890002EA4F10404A5F104051BDD042C4FF079
S315080008A0200150462E46E5D12B1D43454FF02D011C
S315080008B01DD000F087FA019B3846196800F030FF12
S315080008C0019B002E03F104030193A4F10404A5F18E
S315080008D00405E3DC0A2000F0FFFBD144642204236C
S315080008E089F8042089F8083003B0BDE8F08F202184
S315080008F000F068FA019B3846196800F011FF019B61
S3150800090004330193C4E70A2000F0E6FB002DE4DD7A
S31508000910019999E7DFF80890DFE700BFF0200008A3
S315080009200870012070B5014682B0044600F03EF911
S31508000930009058B103785BB94A4B19190A79642AA9
S315080009405FD0652A32D02046FFF76AFD02B070BD37
S31508000950444E32191179652935D0431C0093018814
S31508000960437849BA89B25BBB3F4A1388002B3DD00E
S31508000970002504E032F8023F0135002B36D09942B3
S31508000980F8D1684600F0EEF8384B264453F825307F
S31508000990694620469847357C002DD4D03F2000F084
S315080009A09BFB2946324800F0BBFECCE703EB8403E9
S315080009B0097ADA680A44DA602046FFF731FDC5E7A6
S315080009C002300090D0E72E2B27D0137A0190012B06
S315080009D026D0042B3AD006EB8406802101A800F025
S315080009E09BF8F36823F8020BF360ACE73F2000F0AE
S315080009F073FB01211E4800F093FE2046FFF710FD09
S31508000A00A4E70B7A012B17D0022B1AD0042B9AD104
S31508000A1069462046FFF700FF95E76123137192E7C1
S31508000A2006EB8406802101A800F076F8F3681870B2
S31508000A30F3680133F36086E769462046FFF7E0FD71
S31508000A4081E769462046FFF761FE7CE706EB8406E8
S31508000A50802101A8F56800F05FF8F3682860043380
S31508000A60F36070E708700120842000089C200008C5
S31508000A70082100082DE9F04182B001AA0C46FFF7CB
S31508000A800DFD0546204600F06DF8802120462668B3
S31508000A9000F042F82368B34214BF074600272046F1
S31508000AA000F060F880212046D4F8008000F034F881
S31508000AB02368434514BF06460026204600F052F830
S31508000AC080212046D4F8008000F026F823684345A4
S31508000AD018D0002813DD05F1FF3C06FB0CFC002DA1
S31508000AE00BDD3A460023019901334C1C9D420194C3
S31508000AF00A703244F7D1374467440138EFD102B05F
S31508000B00BDE8F0810120E6E700F00F00092894BF50
S31508000B1030305730704700BF0268531C30B519444F
S31508000B20054600200CE0E3B2A3F14104052C17D8D2
S31508000B30A3F1370C8B1A002B12DD0CEB00102A6080
S31508000B4012F8013BA3F1300C602B5FFA8CFEA3F17F
S31508000B502004E8D8BEF1090FE6D88B1A002BECDC86
S31508000B6030BD00BF03681A78202A04D10133036018
S31508000B701A78202AFAD0704738B50C1E05DD0546C6
S31508000B80284600F0A9FA013CFAD138BD064A02EB1C
S31508000B90800102F108034FF0000C03EBC01302F8C2
S31508000BA000C04B60704700BF1C7001202DE9F84F4C
S31508000BB0DFF8909019F8013009F1080707EBC1171B
S31508000BC0BBB909EB81030D465E6880464FEA810B87
S31508000BD007F17F0A284600F039F9082804460BD0A1
S31508000BE00D2821D00A28F5D0B0B90746D944C9F846
S31508000BF004603846BDE8F88FBE42EBD90146404648
S31508000C0000F0E0F84046202100F0DCF82146404696
S31508000C10013E00F0D7F8DDE70146404600F0D2F87D
S31508000C2006F8014B5645D5D30D21404600F0CAF8C3
S31508000C3040460A2100F0C6F8F31B09F805300023E0
S31508000C403370D3E71C700120002A0BDD013A22F02D
S31508000C500303043304380B4451F8042B40F8042FDB
S31508000C609942F9D1704700BF704700BF164A30B5A0
S31508000C701518002402EB800102F1040E4FEAC01C8D
S31508000C8014540EEBC01385F8944085F82C4185F86A
S31508000C902841983285F830410CF18005C1E92233A4
S31508000CA0C1F83441C1F884300EEB050402EB0C039D
S31508000CB02A44C1F89040C1E94633BDE83040C1E94D
S31508000CC0483200F0ABBD00BFA470012038B5044619
S31508000CD000F09AFE10F47F4F23D0C3B2132B21D015
S31508000CE0112B24D01C4A02EB8401D1F88C00451C38
S31508000CF0C1F88C500370D1E92303984224BFD1F878
S31508000D008430C1F88C30135D1B0603D4135D0133A0
S31508000D10DBB21355135D532B03D9224492F82831BD
S31508000D207BB138BD0C48044484F8303138BD0A4BD1
S31508000D302344002283F830212046BDE8384000F0DD
S31508000D406DBE132382F8283182F82C312046BDE87F
S31508000D50384000F063BE00BFA470012038B5184DB6
S31508000D602B1893F82C1119BB93F89430E3B105EBC3
S31508000D7080030446D3F81C11D3F824014A1C824286
S31508000D80C3F81C21204628BFD3F81821097828BFA4
S31508000D90C3F81C212C4400F059FE94F89430013B0A
S31508000DA0DBB284F8943038BDBDE8384000F042BE66
S31508000DB0002283F82C21BDE8384000F047BE00BF6A
S31508000DC0A47001202DE9F843061E3BDB1E4F894619
S31508000DD04FEA8608BC1907EB860502E0D5F83431D8
S31508000DE023BB94F894301B06F8D407EB0803374462
S31508000DF0D3F82021511CC3F8201182F80090D3E9BA
S31508000E004812914224BFD3F81821C3F8202100F0D4
S31508000E10C9FC97F894300133DBB287F8943097F819
S31508000E20303143B1BDE8F84300F0C2BCD5F838010B
S31508000E3000219847D5E7304600F0F0FDBDE8F843B5
S31508000E4000F0B6BCBDE8F883A4700120F8B5234FBE
S31508000E503B5C0446A3B907EB800503F0FF06D5F80B
S31508000E6034315BB13A5C12B108E0D5F83431D5F8C3
S31508000E703801012198473B5D002BF6D03046F8BD76
S31508000E8000F090FC3B5D013BDBB23B5500F090FC6B
S31508000E903B5D2A2B10D83D1995F8283163B10023FC
S31508000EA085F8283100F07EFC1123204685F82C3180
S31508000EB000F0B4FD00F07CFC07EB8404D4F888202D
S31508000EC0D4F89010531CC4F888308B421678D5D3C2
S31508000ED0D4F88430C4F888303046F8BDA4700120B0
S31508000EE0014B185C704700BFA4700120024B1844E0
S31508000EF090F89400704700BFA4700120002804DC15
S31508000F00024B03EB8000C0E94D127047A470012024
S31508000F10002070470A2938B5074D0C4606D02B68BD
S31508000F20E1B21868BDE83840FFF74CBF2B680D21C1
S31508000F301868FFF747FFF2E70070012010B5044C68
S31508000F4023681868FFF782FF0028F9D010BD00BF94
S31508000F5000700120F8B50F4661B1551E064C6E1893
S31508000F6023681868FFF772FF0028F9D005F8010F03
S31508000F70B542F5D13846F8BD007001202DE9F0419B
S31508000F808846A9B156180C4F541E013E06E03B6828
S31508000F9029461868FFF716FFB44209D014F8015F0E
S31508000FA00A2DF4D13B680D211868FFF70BFFEEE711
S31508000FB04046BDE8F08100BF0070012010B50C4620
S31508000FC082B001462046019100F0A6FB054B019927
S31508000FD0002818BF1C46204623699847012002B0FE
S31508000FE010BD00BF0072012038B5054608460C46FC
S31508000FF000F092FB094B02462846002A18BF1C46F9
S3150800100000F09EFE2A4663690146204698472369F2
S3150800101005460A2120469847284638BD0072012011
S31508001020034B002818BF034618469B68184700BF9D
S31508001030E0710120054B002A18BF134610B4DC687E
S315080010400246184623465DF8044B1847E07101200E
S3150800105010B5084C002B14BF9C46A4460C461146F6
S31508001060DCF80C30024604FB01F160469847B0FBF9
S31508001070F4F010BDE071012070B582B01646024644
S3150800108018460D461C46019200F046FB064B019A8F
S31508001090002818BF1C4606FB05F1636920469847D9
S315080010A0B0FBF5F002B070BD0072012030B583B018
S315080010B0084C019000F044FE019A636B0146E06B10
S315080010C09847236B05460A2104F1200098472846CD
S315080010D003B030BDE071012030B5074C83B004F190
S315080010E020050190284600F017FB2846236B019936
S315080010F09847012003B030BDE0710120034B00285A
S3150800110018BF034618469B69184700BF007201209E
S3150800111008B5034B1B681868FFF7E2FE08BD00BF59
S3150800112000700120014B03EB40107047E07101206D
S31508001130022815D80C4B0D490D4A30B403EB401361
S315080011404FF0FF35C3E901510A4C0B491268DA61C1
S31508001150C3E90341094C0A49C3E9054130BC704754
S315080011604FF0FF30704700BFE07101203D0F0008C7
S3150800117000700120550F0008150F00087D0F0008A4
S31508001180110F00080C4A0D4B0D49F0B40D4F0E4EC9
S315080011900E4D0F4C106003F1600C4FF0FF32D86112
S315080011A0C3E90127C3E90365C3E90541203363455C
S315080011B0F5D1F0BC704700BF00700120E071012036
S315080011C0110F00083D0F0008550F0008150F0008FD
S315080011D07D0F00082DE9F04FB0FBF1FC01FB1C0464
S315080011E085B0145D8DF804400DF10408DDE910673B
S315080011F0C346012400E0F446814260460AD8BCFB97
S31508001200F1FE01FB1ECC013412F80CC00BF801CF1D
S315080012100C2CF0D10E9A012AA3EB02093DD10F9BA3
S31508001220012B37D139462D20B047DDF83CB00223D3
S315080012304C451BDA0F9B012B0CBF30252025A246F7
S31508001240394628460AF1010AB047D145F8DC09F1C2
S31508001250FF331B1B4C45A8BF00230E9A0BF1010B4D
S315080012609B440BF10109012A4B4603D10F9ACAB1D7
S315080012700BF1010904F1FF3A08EB0A042078394614
S31508001280B047444504F1FF34F8D10AEB090005B02C
S31508001290BDE8F08FDDE90E3BCAE74C4508DADDF814
S315080012A038B0C7E739462D2003F10109B047E1E711
S315080012B00E9B03F10109DDE7FFF70EBF2DE9F04F9D
S315080012C01446074614F8010B87B0002800F08A80F8
S315080012D0DFF840A4164699464FF0000B0D46A04687
S315080012E009E02946B84746460BF1010B08F1010803
S315080012F03078002877D02528F3D17278302A76D02E
S3150800130002360024A2F13003092B4FF000030BD854
S3150800131003EB830302EB430316F8012BA2F130011A
S315080013200929A3F13003F3D9002A00F06781253A89
S31508001330532A65D8532A63D8DFE812F05D006200A5
S31508001340620062006200620062006200620062007F
S31508001350620062006200620062006200620062006F
S31508001360620062006200620062006200620062005F
S31508001370620062006200620062006200620062004F
S31508001380620062006200620062006200620062003F
S31508001390620062006200620062006200620062002F
S315080013A06200470162006200620062006200620039
S315080013B06200620062006200560165006200620017
S315080013C062007700650062006200A90062006200A0
S315080013D0FA006200620062000901620032016200DE
S315080013E0620038018346584607B0BDE8F08FB278E8
S315080013F00124033686E7294625200BF1010BB84759
S3150800140006F1010874E759F8040B01940028CDE9A0
S315080014100275C0F2F680002200920A21BB4AFFF745
S31508001420D9FE06F10108834462E7314611F8012B1B
S31508001430002AD8D0583AD0B2202824D8202A22D830
S31508001440DFE812F0510121002100210021002100CE
S31508001450210021002100210021002100F4002100A3
S31508001460210021002100F400210021002100210093
S3150800147021004701210021002100210021003C0113
S3150800148021002100080106F102080E4630E7314620
S3150800149011F8012B002AA6D0583AD0B22028F2D843
S315080014A0202AF0D801A050F822F000BF351600080F
S315080014B08714000887140008871400088714000892
S315080014C08714000887140008871400088714000882
S315080014D087140008871400088714000809160008EE
S315080014E08714000887140008871400088714000862
S315080014F009160008871400088714000887140008CE
S3150800150087140008871400089D1600088714000829
S315080015108714000887140008871400088714000831
S31508001520891600088714000887140008771600082B
S31508001530002259F8040B0092CDE90275734A01940A
S315080015400821FFF747FE06F101088344D0E64A461C
S3150800155052F8041B05920878002800F0D480A1EB05
S315080015600B0103EB0B0801F1010909EB0B042946F2
S31508001570B84720780BF1010BA8EB0B040028F4D12F
S31508001580002CC8BFA04606DD29462020B847B8F17A
S315080015900108F9D1A344DDF8149006F10108A7E67D
S315080015A059F8040B0194CDE9027534E7002259F87D
S315080015B0040B0092CDE90275554A01941021FFF7F4
S315080015C009FE06F10108834492E6002259F8040B45
S315080015D00092CDE90275019452461021FFF7FAFDF3
S315080015E006F10108834483E659F8040B2946C0B27C
S315080015F0B8470BF1010B06F1010879E6B046013E42
S3150800160076E64042012207E759F8040B01940028C0
S31508001610CDE9027571DB06F1020800220E4600923A
S315080016200A213A4AFFF7D6FD834461E659F8040BC6
S3150800163000B2EBE759F8040B0194CDE9027506F1FF
S3150800164002080E460022009210215246FFF7C2FDFC
S3150800165083444DE659F8040B0194CDE9027506F169
S31508001660020880B20E46002200921021284AFFF78F
S31508001670B1FD83443CE659F8040B019406F10208CF
S31508001680CDE902750E46EEE759F8040B019406F10A
S315080016900208CDE902750E460022C0E759F8040B88
S315080016A00194CDE9027506F102080E460022009261
S315080016B00821164AFFF78EFD834419E659F8040BEC
S315080016C0019406F10208CDE902750E4680B20022A1
S315080016D0A5E759F8040B019406F10208CDE902754D
S315080016E00E4680B2E2E759F8040B019406F10208A7
S315080016F0CDE902750E4680B2A4E706F1020840421B
S315080017000E4601228BE71C463AE700BF1021000867
S315080017101C21000830210008B0FA80F04009704703
S315080017200FB400B583B004AB002153F8042B04486A
S315080017300193FFF7C3FD03B05DF804EB04B07047EF
S31508001740B912000810B5044600F01AF80A2C00D0A1
S3150800175010BDBDE810400D2000F012B80FB400B55A
S3150800176083B004AB002153F8042B04480193FFF718
S31508001770A5FD03B05DF804EB04B0704745170008F3
S31508001780074A13885906FCD583B20A28938000D0E5
S315080017907047034A13885B06FCD50D239380704770
S315080017A0004400404FF0E0234022C3F884217047EC
S315080017B04FF0E0234022C3F80421704708B50248D9
S315080017C0FFF7CCFFFEE700BF4421000808B5024832
S315080017D0FFF7C4FFFEE700BF6021000808B502480E
S315080017E0FFF7BCFFFEE700BF8021000808B50248E6
S315080017F0FFF7B4FFFEE700BFA421000808B50248BA
S31508001800FFF7ACFFFEE700BFC421000808B5024891
S31508001810FFF7A4FFFEE700BFE821000800B1704704
S31508001820644A654BD2F8401841F4003110B5C2F845
S315080018304018D2F83018614C41F00101C2F830184E
S315080018401A6822F0300242F020021A609A6822F0E2
S31508001850300242F020029A605A6822F004025A6066
S31508001860DA6822F0300242F01002DA601A6822F0D2
S31508001870C00242F080021A609A6822F0C00242F062
S3150800188080029A605A6822F008025A60DA6822F0E2
S31508001890C00242F04002DA601A6A22F4706242F428
S315080018A0E0621A621A6A22F4704242F4E0421A624C
S315080018B0238A23F440531B041B0C2382A38923F495
S315080018C0B05323F00C031B041B0C43F00C03A38139
S315080018D0A38A23F440731B0484B01B0CA3826846B6
S315080018E000F0CCF9A289029B12F4004F03EB8303A4
S315080018F003EB830248D132493248530BA1FB03312B
S315080019006423A0FB020201FB03F3C3EB92431B0112
S315080019102D4A3233A2FB0323C3F3431343EA0113CD
S31508001920264C9BB22381A3899BB24FF0E02143F05A
S315080019302003A381D1F80C2DD1F80C3DDB43C3F36A
S315080019400223042BC2F302224FF0010128BF04230D
S31508001950032A01FA03F338BF0322013B033AD2B242
S3150800196003F0040393401B01184A03F0F00382F8BE
S3150800197026302620052200F081F8A3899BB243F47D
S315080019800053A38104B010BD11490E48130BA1FBE7
S3150800199003316423A0FB020201FB03F3C3EB5243AA
S315080019A0DB00094A3233A2FB0323C3F3421343EA9B
S315080019B00113B5E700300240000002400044004031
S315080019C09FA60B00C5B3A2911F85EB5100E400E06A
S315080019D09EA60B000B4A38B59389148898069DB2C3
S315080019E0A4B201D5A10609D42A0601D5230600D436
S315080019F038BDBDE838400020FFF7B0B90020FFF732
S31508001A0065F9F1E700440040034B53F830309888F5
S31508001A1060F0FF0080B270470C220008044B53F8B0
S31508001A20302093899BB243F080039381704700BFAF
S31508001A300C220008044B53F83020938923F08003C6
S31508001A401B041B0C938170470C220008024B53F8A9
S31508001A5030309980704700BF0C220008034B53F8BA
S31508001A60302013885B06FCD5704700BF0C2200089F
S31508001A704FF0E023C3F8080D704700BF51B91F4B5C
S31508001A80420903EB820300F01F00012202FA00F06C
S31508001A901860704720F0030C0CF1604C0CF5644C90
S31508001AA04FF0E02330B5DCF80040D3F80C1DC1F345
S31508001AB00221032938BF03210339CBB201219A40F9
S31508001AC001FA03F3013B134300F0030E1B014FEA2F
S31508001AD0CE0E03F0F003FF2503FA0EF305FA0EFE09
S31508001AE024EA0E042343064ACCF80030430902EBE5
S31508001AF0830300F01F008140196030BD80E100E0DB
S31508001B0000E100E0554B5649D3F80028002042F082
S31508001B10010270B5C3F80028C3F80808D3F80028EE
S31508001B20504C22F08072C3F80028C3F80448D3F852
S31508001B30002822F48022C3F80028C3F80C08D3F83A
S31508001B40402842F08052C3F84028D3F840280A6853
S31508001B5022F4404242F400420A600A68D3F8082890
S31508001B6012F00C026FD0082A69D03C4DD5F8083817
S31508001B7003F00C03082B23D03B4B3C4E00221A667D
S31508001B8040F2E93403E0FEF74CFB013C51D0D5F8AE
S31508001B90003899013046F6D4334B3549C5F8041850
S31508001BA001222E4E314D1A6640F2E93403E0FEF763
S31508001BB038FB013C3DD0D6F800389A012846F6D5C0
S31508001BC02C4B264D02221A70D5F8003C03F0070369
S31508001BD093422ED1D5F8083823F0F003C5F8083813
S31508001BE0D5F800389B0124D5D5F808381F4E23F0C0
S31508001BF0030343F00203C5F808384CF2513403E0F6
S31508001C00FEF70FFB013C14D0D5F8083803F00C0397
S31508001C10082B3046F4D1D5F8083823F4E05343F4BA
S31508001C208053C5F80838D5F8083823F46043C5F852
S31508001C3008384FF0E023104AC3F8082D70BDD3F8D2
S31508001C400438580291D4054AD2F8003823F0F8032C
S31508001C5043F08003C2F8003887E700BF003002402F
S31508001C60007000401030002400004742A0860100A2
S31508001C7010540107003C024000000008234AD2F82D
S31508001C80083803F00C03042B10B41ED0082B1FD001
S31508001C901F4B03601D4A1F49D2F80848C4F30314B2
S31508001CA00C5DE3404360D2F80848C4F382240C5D17
S31508001CB023FA04F48460D2F808285DF8044BC2F3CA
S31508001CC042328A5CD340C3607047134B0360E1E736
S31508001CD0D2F80438D2F8041813F4800F01F03F0143
S31508001CE0D2F8043814BF0C4A094AB2FBF1F1074A84
S31508001CF0D2F80428C2F30142C3F38813013201FB68
S31508001D0003F35200B3FBF2F30360C3E7003002406B
S31508001D100024F4001422000800127A0000000000D3
S31508001D2000000000000000000000000000000000A5
S31508001D300000000000000000000000000000000095
S31508001D4090F800F06DE9024520F007016FF0000CED
S31508001D5010F0070491F820F040F049804FF0000495
S31508001D606FF00700D1E9002391F840F000F1080070
S31508001D7082FA4CF2A4FA8CF283FA4CF3A2FA8CF3A8
S31508001D804BBBD1E9022382FA4CF200F10800A4FA0F
S31508001D908CF283FA4CF3A2FA8CF3E3B9D1E9042363
S31508001DA082FA4CF200F10800A4FA8CF283FA4CF39A
S31508001DB0A2FA8CF37BB9D1E9062301F1200182FA54
S31508001DC04CF200F10800A4FA8CF283FA4CF3A2FA5A
S31508001DD08CF3002BC6D0002A04BF04301A4612BA68
S31508001DE0B2FA82F2FDE8024500EBD2007047D1E96B
S31508001DF0002304F00305C4F100004FEAC50514F0FA
S31508001E00040F91F840F00CFA05F562EA05021CBFCA
S31508001E1063EA050362464FF00004A9E700000000E4
S31508001E2053746172742041646472657373203D2033
S31508001E302530386C780A0000456E642020204164FD
S31508001E406472657373203D202530386C780A00006B
S31508001E50456E7472792041646472657373203D20FF
S31508001E602530386C780A00004572726F72203D2062
S31508001E70253038780A00000053544D333246343042
S31508001E8031204E75636C656F204D6F6E69746F7285
S31508001E902076312E30360D0A436F7079726967687D
S31508001EA0742028432920313939392D3230303420ED
S31508001EB043534520546F6D616B6F6D6169204E43C6
S31508001EC0540D0A436F70797269676874202843292C
S31508001ED020323031362D3230323520544F5050456D
S31508001EE052532050524F4A4543542E002D2D2D2D26
S31508001EF02D2D2D2D2D2D2D2D2D2D2D2D2D2D2D2D04
S31508001F002D2D2D2D2D2D2D2D2D2D2D2D2D2D2D2DF3
S31508001F102D2D2D2D2D2D2D2D2D2D2D2D2D2D2D2DE3
S31508001F202D2D2D2D2D2D2D2D2D2D2D2D2D2D2D2DD3
S31508001F302D2D2D2D2D2D2D2D006C642020202020BB
S31508001F4020202020202020206C6F61642070726F72
S31508001F506772616D202020202020202020207C20F0
S31508001F60676F5B3C61643E5D20202020202020674F
S31508001F706F2070726F6772616D0064625B3C6164AA
S31508001F803E5B3C6C6E3E5D5D2064756D70206279CB
S31508001F907465202020202020202020202020207C3E
S31508001FA02064775B3C61643E5B3C6C6E3E5D5D2005
S31508001FB064756D7020776F726400646C5B3C616455
S31508001FC03E5B3C6C6E3E5D5D2064756D70206C6F8B
S31508001FD06E6720776F726420202020202020207CC6
S31508001FE02065625B3C61643E5D2020202020202025
S31508001FF0656E74657220627974650065775B3C610D
S31508002000643E5B3C6C6E3E5D5D20656E7465722059
S31508002010776F726420202020202020202020202076
S315080020207C20656C5B3C61643E5D2020202020207E
S3150800203020656E746572206C6F6E6720776F7264A8
S315080020400066625B3C61643E5B3C6C6E3E5B3C6971
S315080020506E3E5B3C69633E5B3C72703E5D5D5D5DFA
S315080020605D2066696C6C2062797465003F202020CB
S31508002070202020202020202020202068656C700049
S31508002080000000006C65776562656C64776462645D
S315080020906266646C6F67003F00000000C9050008AF
S315080020A09105000859050008190800080D070008D9
S315080020B001060008750A0008A50200086102000862
S315080020C039020008257800002530386C783A253022
S315080020D032783A002530386C783A2530386C783AB8
S315080020E0000000002530386C783A253034783A00FC
S315080020F02530386C78000000253032780000000062
S315080021002530347800000000253032780A000000B7
S3150800211030313233343536373839000030313233DE
S315080021203435363738396162636465660000000005
S3150800213030313233343536373839414243444546EF
S31508002140000000004E4D4920457863657074696F3C
S315080021506E206F63637572732E20210A00000000DB
S3150800216048617264204661756C74204578636570B1
S3150800217074696F6E206F63637572732E20210A006F
S315080021804D656D6F7279204D616E61676572204588
S315080021907863657074696F6E206F63637572732EEA
S315080021A020210A00427573204661756C74204578B3
S315080021B063657074696F6E206F63637572732E2022
S315080021C0210A00005573616765204661756C7420A5
S315080021D0457863657074696F6E206F636375727393
S315080021E02E20210A000000004465627567204D6FA5
S315080021F06E69746F7220457863657074696F6E20B6
S315080022006F63637572732E20210A00000044004034
S315080022102600050000000000010203040102030471
S315080022200607080900000000000000000000000082
S3090800223060720120A9
S705080001C031
