S00E0000726F6D6D6F6E2E737265637E
S3150800000070260010150200080518000815180008C3
S3150800001025180008351800084518000800000000D3
S315080000200000000000000000000000006102000857
S315080000305518000800000000610200086102000867
S3150800004061020008610200086102000861020008F6
S3150800005061020008610200086102000861020008E6
S3150800006061020008610200086102000861020008D6
S3150800007061020008610200086102000861020008C6
S3150800008061020008610200086102000861020008B6
S3150800009061020008610200086102000861020008A6
S315080000A06102000861020008610200086102000896
S315080000B06102000861020008610200086102000886
S315080000C06102000861020008610200086102000876
S315080000D06102000861020008610200086102000866
S315080000E06102000861020008610200086102000856
S315080000F06102000861020008610200086102000846
S315080001006102000861020008610200086102000835
S315080001106102000861020008610200086102000825
S315080001206102000861020008610200086102000815
S315080001306102000861020008610200086102000805
S3150800014061020008610200086102000861020008F5
S3150800015061020008610200086102000861020008E5
S3150800016061020008610200086102000861020008D5
S3150800017061020008610200086102000861020008C5
S3150800018061020008610200086102000861020008B5
S315080001906102000800000000610200086102000810
S315080001A06102000861020008610200089D19000842
S315080001B06102000861020008610200086102000885
S315080001C06102000861020008610200086102000875
S30D080001D0610200086102000843
S30D080001D8941E0000010000005E
S3150800020050270008002000100420001004200010C9
S3150800021070220010DFF830D0002103E00B4B5B584A
S31508000220435004310A480B4B42189A42F6D30A4AFD
S3150800023002E0002342F8043B084B9A42F9D301F046
S315080002400FFE00F01BF9FEE7702600105027000885
S315080002500020001004200010042000107022001056
S31508000260FEE7A0F12C00002800DC7047A0F118007A
S315080002700028FBDC7047000038B5084C532000F016
S315080002804BFF254614F8010F0028F8D10A2000F084
S3150800029043FF6078AC1C0028F1D138BD98230008CC
S315080002A038B50C4620468021256800F055FC2368A1
S315080002B0AB420ABF094B04465C6800F0F5FC01F046
S315080002C091FA064801F0B2FBA04701F08BFA044800
S315080002D001F0ACFBBDE8384001F08CBA0000002004
S315080002E0000000082DE9F04F554B564F61220025B6
S315080002F01A5483B004462E46A8464FF0F109204604
S3150800030000F064FC21464FF0FF3000F06FFC0090CF
S315080003100028F7D0431C00930378532BEFD1831C96
S31508000320022101A8019300F017FC019B023B8246BB
S3150800033001934FF0000B022101A800F00DFCBAF161
S31508000340010A8344F7D50BF1FF33DBB2FD2B04D842
S315080003503B5D33BB07F80490A846009B5A1C0092E5
S315080003600221684693F800A000F0F6FBBAF1310FB7
S31508000370834653D0BAF1320F15D0BAF1330F43D0B2
S31508000380BAF1370F2AD0BAF1380F41D0BAF1390F7E
S3150800039048D0AAF1370ABAF1020FB0D84FF00009CF
S315080003A021E0A846D9E76FF002050621684600F065
S315080003B0D3FB0BF1FF332B44002E08BF0646002B58
S315080003C00546E6DD00EB030B0221684600F0C4FB98
S315080003D02B4601355D451870F6D1DAE704216846E3
S315080003E000F0BAFB81463146174801F0B9F92946AB
S315080003F0164801F0B5F91648494601F0B1F93B5DD2
S31508000400B3B903B0BDE8F08F6FF003050821CDE757
S315080004106846062100F0A0FB8146E4E76FF0010577
S315080004200421C3E76846082100F096FB8146DAE70F
S315080004304146084801F094F903B0BDE8F08F00BFC3
S315080004400C2000101820001040230008582300082C
S315080004507023000888230008704700BF704700BF54
S3150800046010B5044600F062F8034B00221A552046E0
S31508000470BDE8104000F0AABB1820001008B51148C6
S31508000480114C01F0D3FAFFF7E7FF002000F00EFC4D
S315080004900E4A0F484FF00053612123600360117024
S315080004A0FFF7DCFF01F0A6F90A4800F08BFE0A48C0
S315080004B000F01CFE0020FFF7D3FF002000F052FAE0
S315080004C0FBE700BF00000008142000100C200010F5
S315080004D0082000100420001098230008F8B50C46E0
S315080004E006460846154600F05DFB8021204627682B
S315080004F000F032FB28602368BB420DD0204600F08E
S3150800050051FB80212046256800F026FB23689D4282
S3150800051008BF4FF48070F8BD034B53F826302B60A4
S315080005204FF48070F8BD00BF0820001008B5154BC1
S315080005301A180146107965280DD1127A012A03EB9B
S31508000540810110D0042A15D0C9680F480A88BDE869
S31508000550084001F005B90D4801F002F9BDE8084068
S315080005603A2000F0D9BDC96809480A78BDE80840AC
S3150800057001F0F6B8C96807480A68BDE8084001F0FE
S31508000580EFB800BF0820001008260008E825000874
S31508000590EC250008F825000870B50D4604468021AC
S315080005A028462E6800F0D8FA2B68B342074B08BFD6
S315080005B003EB84014FEA84021C4408BFC86813444D
S315080005C06521012221712272D86070BD08200010B1
S315080005D070B50D460446802128462E6800F0BCFA00
S315080005E02B68B342074B08BF03EB84014FEA84022A
S315080005F01C4408BFC868134465210222217122726F
S31508000600D86070BD0820001070B50D4604468021DC
S3150800061028462E6800F0A0FA2B68B342074B08BF9D
S3150800062003EB84014FEA84021C4408BFC8681344DC
S315080006306521042221712272D86070BD082000103D
S315080006402DE9F04F85B003AA0646FFF747FF3C4B56
S315080006500193071E6ADD039943F82610DFF8E89030
S3150800066001F00F0A21F00F01364801F079F80AEB7C
S315080006704A010131202000F09FFA039B7C1ECAF133
S315080006801002009203F10108CAF10F05A3460EE015
S3150800069000F0B8FB18F8011C484601F061F85B4603
S315080006A005B308F10108013D0BF1FF3BD3B1072D56
S315080006B04FF020013046EBD10BF101039F424FF07A
S315080006C02D0100D1202100F09DFB18F8011C484699
S315080006D001F046F85B4608F10108013D0BF1FF3BC6
S315080006E0002BE4D10AF10201202000F065FA009BF4
S315080006F0FD1A01E0BCB1013C039B5A1C0392197810
S31508000700A1F120035E2B88BF2E21304600F07AFB2C
S31508000710AC422746EED10A2000F0FEFC35B103991B
S315080007204FF0000A9EE70A2000F0F6FC019B3344CE
S315080007301E46642201233271337205B0BDE8F08F7C
S3150800074008200010142600081C2600082DE9F04F82
S3150800075085B003AA8146FFF7C1FE002873DD039B17
S315080007603A4ADFF8F0A03A4F019223F0010101302E
S3150800077020F0010842F82910039103F00E0B4646B3
S3150800078021F00F01504600F0EBFF0BEBDB7149102F
S3150800079001EB81010131202000F00EFACBF10E04A5
S315080007A0B51E13E000F0B8FC039B3846198800F024
S315080007B0D7FF039BB4F1000B03F1020303933BDD60
S315080007C0002EA4F10204A5F102051ADD062C4FF04D
S315080007D020002E46E6D1AB1C43454FF02D001FD016
S315080007E000F09AFC039B3846198800F0B9FF039B72
S315080007F0002E03F102030393A4F10204A5F10205F6
S31508000800E4DC0A2000F088FC019B4B4499466422EC
S31508000810022389F8042089F8083005B0BDE8F08F6E
S31508000820202000F079FC039B3846198800F098FFD1
S31508000830039B02330393C3E70A2000F06DFC002DE7
S31508000840E2DD03999CE7014B0193DDE708200010E0
S3150800085024260008142600082DE9F04F83B001AAC3
S315080008608246FFF73BFE002874DD019BDFF8F09017
S315080008703A4F23F00301033020F0030849F82A1001
S31508000880019103F00C0B464621F00F01384600F0A3
S3150800089067FFBBF1000F5946B8BF0BF1030189107A
S315080008A001EBC1010131202000F086F9CBF10C04DF
S315080008B0351F13E000F0A6FA019B3846196800F0C8
S315080008C04FFF019BB4F1000B03F1040301933ADDDA
S315080008D0002EA4F10404A5F104051BDD042C4FF039
S315080008E0200150462E46E5D12B1D43454FF02D01DC
S315080008F01DD000F087FA019B3846196800F030FFD2
S31508000900019B002E03F104030193A4F10404A5F14D
S315080009100405E3DC0A2000F0FFFBD144642204232B
S3150800092089F8042089F8083003B0BDE8F08F202143
S3150800093000F068FA019B3846196800F011FF019B20
S3150800094004330193C4E70A2000F0E6FB002DE4DD3A
S31508000950019999E7DFF80890DFE700BF1426000839
S315080009600820001070B5014682B0044600F03EF932
S31508000970009058B103785BB94A4B19190A79642A69
S315080009805FD0652A32D02046FFF76AFD02B070BDF7
S31508000990444E32191179652935D0431C00930188D4
S315080009A0437849BA89B25BBB3F4A1388002B3DD0CE
S315080009B0002504E032F8023F0135002B36D0994273
S315080009C0F8D1684600F0EEF8384B264453F825303F
S315080009D0694620469847357C002DD4D03F2000F044
S315080009E09BFB2946324800F0BBFECCE703EB8403A9
S315080009F0097ADA680A44DA602046FFF731FDC5E766
S31508000A0002300090D0E72E2B27D0137A0190012BC5
S31508000A1026D0042B3AD006EB8406802101A800F0E4
S31508000A209BF8F36823F8020BF360ACE73F2000F06D
S31508000A3073FB01211E4800F093FE2046FFF710FDC8
S31508000A40A4E70B7A012B17D0022B1AD0042B9AD1C4
S31508000A5069462046FFF700FF95E76123137192E781
S31508000A6006EB8406802101A800F076F8F368187072
S31508000A70F3680133F36086E769462046FFF7E0FD31
S31508000A8081E769462046FFF761FE7CE706EB8406A8
S31508000A90802101A8F56800F05FF8F3682860043340
S31508000AA0F36070E708200010A8250008C025000894
S31508000AB02C2600082DE9F04182B001AA0C46FFF762
S31508000AC00DFD0546204600F06DF880212046266873
S31508000AD000F042F82368B34214BF074600272046B1
S31508000AE000F060F880212046D4F8008000F034F841
S31508000AF02368434514BF06460026204600F052F8F0
S31508000B0080212046D4F8008000F026F82368434563
S31508000B1018D0002813DD05F1FF3C06FB0CFC002D60
S31508000B200BDD3A460023019901334C1C9D42019482
S31508000B300A703244F7D1374467440138EFD102B01E
S31508000B40BDE8F0810120E6E700F00F00092894BF10
S31508000B5030305730704700BF0268531C30B519440F
S31508000B60054600200CE0E3B2A3F14104052C17D892
S31508000B70A3F1370C8B1A002B12DD0CEB00102A6040
S31508000B8012F8013BA3F1300C602B5FFA8CFEA3F13F
S31508000B902004E8D8BEF1090FE6D88B1A002BECDC46
S31508000BA030BD00BF03681A78202A04D101330360D8
S31508000BB01A78202AFAD0704738B50C1E05DD054686
S31508000BC0284600F0A9FA013CFAD138BD064A02EBDC
S31508000BD0800102F108034FF0000C03EBC01302F882
S31508000BE000C04B60704700BF1C2000102DE9F84F6D
S31508000BF0DFF8909019F8013009F1080707EBC117DB
S31508000C00BBB909EB81030D465E6880464FEA810B46
S31508000C1007F17F0A284600F039F9082804460BD060
S31508000C200D2821D00A28F5D0B0B90746D944C9F805
S31508000C3004603846BDE8F88FBE42EBD90146404607
S31508000C4000F0E0F84046202100F0DCF82146404656
S31508000C50013E00F0D7F8DDE70146404600F0D2F83D
S31508000C6006F8014B5645D5D30D21404600F0CAF883
S31508000C7040460A2100F0C6F8F31B09F805300023A0
S31508000C803370D3E71C200010002A0BDD013A22F04E
S31508000C900303043304380B4451F8042B40F8042F9B
S31508000CA09942F9D1704700BF704700BF164A30B560
S31508000CB01518002402EB800102F1040E4FEAC01C4D
S31508000CC014540EEBC01385F8944085F82C4185F82A
S31508000CD02841983285F830410CF18005C1E9223364
S31508000CE0C1F83441C1F884300EEB050402EB0C035D
S31508000CF02A44C1F89040C1E94633BDE83040C1E90D
S31508000D00483200F0AFBD00BFA420001038B5044635
S31508000D1000F05CFE10F47F4F23D0C3B2132B21D012
S31508000D20112B24D01C4A02EB8401D1F88C00451CF7
S31508000D30C1F88C500370D1E92303984224BFD1F837
S31508000D408430C1F88C30135D1B0603D4135D013360
S31508000D50DBB21355135D532B03D9224492F828317D
S31508000D607BB138BD0C48044484F8303138BD0A4B91
S31508000D702344002283F830212046BDE8384000F09D
S31508000D802FBE132382F8283182F82C312046BDE87D
S31508000D90384000F025BE00BFA420001038B5184D15
S31508000DA02B1893F82C1119BB93F89430E3B105EB83
S31508000DB080030446D3F81C11D3F824014A1C824246
S31508000DC0C3F81C21204628BFD3F81821097828BF64
S31508000DD0C3F81C212C4400F017FE94F89430013B0C
S31508000DE0DBB284F8943038BDBDE8384000F002BE66
S31508000DF0002283F82C21BDE8384000F005BE00BF6C
S31508000E00A42000102DE9F843061E3BDB1E4F894639
S31508000E104FEA8608BC1907EB860502E0D5F8343197
S31508000E2023BB94F894301B06F8D407EB0803374421
S31508000E30D3F82021511CC3F8201182F80090D3E979
S31508000E404812914224BFD3F81821C3F8202100F094
S31508000E50C9FC97F894300133DBB287F8943097F8D9
S31508000E60303143B1BDE8F84300F0C4BCD5F83801C9
S31508000E7000219847D5E7304600F0B2FDBDE8F843B3
S31508000E8000F0B8BCBDE8F883A4200010F8B5234FDD
S31508000E903B5C0446A3B907EB800503F0FF06D5F8CB
S31508000EA034315BB13A5C12B108E0D5F83431D5F883
S31508000EB03801012198473B5D002BF6D03046F8BD36
S31508000EC000F090FC3B5D013BDBB23B5500F092FC29
S31508000ED03B5D2A2B10D83D1995F8283163B10023BC
S31508000EE085F8283100F07EFC1123204685F82C3140
S31508000EF000F076FD00F07EFC07EB8404D4F8882029
S31508000F00D4F89010531CC4F888308B421678D5D381
S31508000F10D4F88430C4F888303046F8BDA4200010D0
S31508000F20014B185C704700BFA4200010024B184400
S31508000F3090F89400704700BFA4200010002804DC35
S31508000F40024B03EB8000C0E94D127047A420001045
S31508000F50002070470A2938B5074D0C4606D02B687D
S31508000F60E1B21868BDE83840FFF74CBF2B680D2181
S31508000F701868FFF747FFF2E70020001010B5044C89
S31508000F8023681868FFF782FF0028F9D010BD00BF54
S31508000F9000200010F8B50F4661B1551E064C6E18B4
S31508000FA023681868FFF772FF0028F9D005F8010FC3
S31508000FB0B542F5D13846F8BD002000102DE9F041BC
S31508000FC08846A9B156180C4F541E013E06E03B68E8
S31508000FD029461868FFF716FFB44209D014F8015FCE
S31508000FE00A2DF4D13B680D211868FFF70BFFEEE7D1
S31508000FF04046BDE8F08100BF0020001010B50C4641
S3150800100082B001462046019100F0A6FB054B0199E6
S31508001010002818BF1C46204623699847012002B0BD
S3150800102010BD00BF0022001038B5054608460C461C
S3150800103000F092FB094B02462846002A18BF1C46B8
S3150800104000F03EFF2A466369014620469847236911
S3150800105005460A2120469847284638BD0022001032
S31508001060034B002818BF034618469B68184700BF5D
S31508001070E0210010054B002A18BF134610B4DC689F
S315080010800246184623465DF8044B1847E02100102F
S3150800109010B5084C002B14BF9C46A4460C461146B6
S315080010A0DCF80C30024604FB01F160469847B0FBB9
S315080010B0F4F010BDE021001070B582B01646024665
S315080010C018460D461C46019200F046FB064B019A4F
S315080010D0002818BF1C4606FB05F163692046984799
S315080010E0B0FBF5F002B070BD0022001030B583B039
S315080010F0084C019000F0E4FE019A636B0146E06B30
S315080011009847236B05460A2104F12000984728468C
S3150800111003B030BDE021001030B5074C83B004F1B0
S3150800112020050190284600F017FB2846236B0199F5
S315080011309847012003B030BDE0210010034B00287A
S3150800114018BF034618469B69184700BF00220010BF
S3150800115008B5034B1B681868FFF7E2FE08BD00BF19
S3150800116000200010014B03EB40107047E0210010EF
S31508001170022815D80C4B0D490D4A30B403EB401321
S315080011804FF0FF35C3E901510A4C0B491268DA6181
S31508001190C3E90341094C0A49C3E9054130BC704714
S315080011A04FF0FF30704700BFE02100107D0F0008A8
S315080011B000200010950F0008550F0008BD0F000805
S315080011C0510F00080C4A0D4B0D49F0B40D4F0E4E49
S315080011D00E4D0F4C106003F1600C4FF0FF32D861D2
S315080011E0C3E90127C3E90365C3E90541203363451C
S315080011F0F5D1F0BC704700BF00200010E0210010B8
S31508001200510F00087D0F0008950F0008550F0008BC
S31508001210BD0F00082DE9F04FB0FBF1FC01FB1C04E3
S3150800122085B0145D8DF804400DF10408DDE91067FA
S31508001230C346012400E0F446814260460AD8BCFB56
S31508001240F1FE01FB1ECC013412F80CC00BF801CFDD
S315080012500C2CF0D10E9A012AA3EB02093DD10F9B63
S31508001260012B37D139462D20B047DDF83CB0022393
S315080012704C451BDA0F9B012B0CBF30252025A246B7
S31508001280394628460AF1010AB047D145F8DC09F182
S31508001290FF331B1B4C45A8BF00230E9A0BF1010B0D
S315080012A09B440BF10109012A4B4603D10F9ACAB197
S315080012B00BF1010904F1FF3A08EB0A0420783946D4
S315080012C0B047444504F1FF34F8D10AEB090005B0EC
S315080012D0BDE8F08FDDE90E3BCAE74C4508DADDF8D4
S315080012E038B0C7E739462D2003F10109B047E1E7D1
S315080012F00E9B03F10109DDE7FFF70EBF2DE9F04F5D
S315080013001446074614F8010B87B0002800F08A80B7
S31508001310DFF840A4164699464FF0000B0D46A04646
S3150800132009E02946B84746460BF1010B08F10108C2
S315080013303078002877D02528F3D17278302A76D0ED
S3150800134002360024A2F13003092B4FF000030BD814
S3150800135003EB830302EB430316F8012BA2F13001DA
S315080013600929A3F13003F3D9002A00F06781253A49
S31508001370532A65D8532A63D8DFE812F05D00620065
S31508001380620062006200620062006200620062003F
S31508001390620062006200620062006200620062002F
S315080013A0620062006200620062006200620062001F
S315080013B0620062006200620062006200620062000F
S315080013C062006200620062006200620062006200FF
S315080013D062006200620062006200620062006200EF
S315080013E062004701620062006200620062006200F9
S315080013F062006200620062005601650062006200D7
S3150800140062007700650062006200A900620062005F
S31508001410FA0062006200620009016200320162009D
S31508001420620038018346584607B0BDE8F08FB278A7
S315080014300124033686E7294625200BF1010BB84718
S3150800144006F1010874E759F8040B01940028CDE960
S315080014500275C0F2F680002200920A21BB4AFFF705
S31508001460D9FE06F10108834462E7314611F8012BDB
S31508001470002AD8D0583AD0B2202824D8202A22D8F0
S31508001480DFE812F05101210021002100210021008E
S31508001490210021002100210021002100F400210063
S315080014A0210021002100F400210021002100210053
S315080014B021004701210021002100210021003C01D3
S315080014C021002100080106F102080E4630E73146E0
S315080014D011F8012B002AA6D0583AD0B22028F2D803
S315080014E0202AF0D801A050F822F000BF751600088F
S315080014F0C7140008C7140008C7140008C714000852
S31508001500C7140008C7140008C7140008C714000841
S31508001510C7140008C7140008C714000849160008AD
S31508001520C7140008C7140008C7140008C714000821
S3150800153049160008C7140008C7140008C71400088D
S31508001540C7140008C7140008DD160008C7140008E9
S31508001550C7140008C7140008C7140008C7140008F1
S31508001560C9160008C7140008C7140008B7160008EB
S31508001570002259F8040B0092CDE90275734A0194CA
S315080015800821FFF747FE06F101088344D0E64A46DC
S3150800159052F8041B05920878002800F0D480A1EBC5
S315080015A00B0103EB0B0801F1010909EB0B042946B2
S315080015B0B84720780BF1010BA8EB0B040028F4D1EF
S315080015C0002CC8BFA04606DD29462020B847B8F13A
S315080015D00108F9D1A344DDF8149006F10108A7E63D
S315080015E059F8040B0194CDE9027534E7002259F83D
S315080015F0040B0092CDE90275554A01941021FFF7B4
S3150800160009FE06F10108834492E6002259F8040B04
S315080016100092CDE90275019452461021FFF7FAFDB2
S3150800162006F10108834483E659F8040B2946C0B23B
S31508001630B8470BF1010B06F1010879E6B046013E01
S3150800164076E64042012207E759F8040B0194002880
S31508001650CDE9027571DB06F1020800220E460092FA
S315080016600A213A4AFFF7D6FD834461E659F8040B86
S3150800167000B2EBE759F8040B0194CDE9027506F1BF
S3150800168002080E460022009210215246FFF7C2FDBC
S3150800169083444DE659F8040B0194CDE9027506F129
S315080016A0020880B20E46002200921021284AFFF74F
S315080016B0B1FD83443CE659F8040B019406F102088F
S315080016C0CDE902750E46EEE759F8040B019406F1CA
S315080016D00208CDE902750E460022C0E759F8040B48
S315080016E00194CDE9027506F102080E460022009221
S315080016F00821164AFFF78EFD834419E659F8040BAC
S31508001700019406F10208CDE902750E4680B2002260
S31508001710A5E759F8040B019406F10208CDE902750C
S315080017200E4680B2E2E759F8040B019406F1020866
S31508001730CDE902750E4680B2A4E706F102084042DA
S315080017400E4601228BE71C463AE700BF34260008FE
S315080017504026000854260008B0FA80F04009704771
S315080017600FB400B583B004AB002153F8042B04482A
S315080017700193FFF7C3FD03B05DF804EB04B07047AF
S31508001780F912000810B5044600F01AF80A2C00D021
S3150800179010BDBDE810400D2000F012B80FB400B51A
S315080017A083B004AB002153F8042B04480193FFF7D8
S315080017B0A5FD03B05DF804EB04B070478517000873
S315080017C0074AD3695906FCD50A28906200D07047A3
S315080017D0034AD3695B06FCD50D239362704700BFA5
S315080017E0008000404FF0E0234FF00062C3F88821E4
S315080017F0704700BF4FF0E0234FF00062C3F808219E
S31508001800704700BF08B50248FFF7C8FFFEE700BFEC
S315080018106826000808B50248FFF7C0FFFEE700BFC4
S315080018208426000808B50248FFF7B8FFFEE700BFA0
S31508001830A426000808B50248FFF7B0FFFEE700BF78
S31508001840C826000808B50248FFF7A8FFFEE700BF4C
S31508001850E826000808B50248FFF7A0FFFEE700BF24
S315080018600C27000800B1704770B5484E484DF26D18
S3150800187042F00102F265F26C4FF0904342F0010229
S31508001880F2641A6822F0300242F020021A609A685E
S3150800189042F030029A605A6822F004025A60DA6806
S315080018A022F0300242F01002DA601A6822F0C00212
S315080018B042F080021A609A6842F0C0029A605A683A
S315080018C022F008025A60DA6822F0C00242F04002AA
S315080018D0DA601A6A22F4706242F440621A621A6A7C
S315080018E022F4704242F4404284B01A6204462948FF
S315080018F0FEF7B7FC6A68284B22F440526A602A68E9
S31508001900134043F00C032B60AB6823F44073AB60C1
S3150800191001A800F05DFAD6F88830EA6AC3F3812395
S3150800192022F00F02022BEA622CD0032B28D0012BBF
S315080019300CBF01990299E13144F10004240208021E
S315080019404FF4E132002344EA116100F077FB104CB2
S31508001950E060636823F490436360A36823F02A0376
S31508001960A360236843F020032360072201215B203C
S3150800197000F062F8236843F00103236004B070BDE9
S315080019804920E4E748F6E420E1E700BF00100240FA
S3150800199000800040400D0300F3E9FFEF38B50A4B1D
S315080019A01C68DD69A00601D5A90609D4220601D559
S315080019B02B0600D438BDBDE838400020FFF7EEB945
S315080019C00020FFF7A3F9F1E700800040034B53F826
S315080019D03030586A60F0FF0080B270473027000840
S315080019E0034B53F83020136843F0800313607047A5
S315080019F030270008034B53F83020136823F0800380
S31508001A001360704730270008024B53F8303099624C
S31508001A10704700BF30270008034B53F830201C32AC
S31508001A2013685B06FCD57047302700084FF0E023A3
S31508001A30C3F8080D704700BF51B91F4B420903EBA5
S31508001A40820300F01F00012202FA00F018607047B6
S31508001A5020F0030C0CF1604C0CF5644C4FF0E023BD
S31508001A6030B5DCF80040D3F80C1DC1F30221032978
S31508001A7038BF03210339CBB201219A4001FA03F397
S31508001A80013B134300F0030E1B014FEACE0E03F091
S31508001A90F003FF2503FA0EF305FA0EFE24EA0E04F8
S31508001AA02343064ACCF80030430902EB830300F0CF
S31508001AB01F008140196030BD80E100E000E100E0D0
S31508001AC0AA4A38B5136803F4C063B3F5806FD2F831
S31508001AD0803000F0318123F48073C2F88030A44A44
S31508001AE09368D26803F00C030C2B00F01F81042BBB
S31508001AF015D09F4D2B6843F480732B602B685805CF
S31508001B0058BF4FF4FA6403D509E0013C00F00B8195
S31508001B104FF47A70FEF7A5FB2B685905F5D5944A5C
S31508001B20934D536823F0BE4343F080435360D5F882
S31508001B30983043F00103C5F89830D5F898309A07DD
S31508001B4058BF4FF4FA6403D50AE0013C00F0EB8075
S31508001B504FF47A70FEF785FBD5F898309B07F4D5D5
S31508001B60834D844BAA6D844942F48072AA65AA6D96
S31508001B70AA6B42F48072AA63AA6B22F48072AA63E3
S31508001B8059601A6822F47C5242F400521A601A68A4
S31508001B9042F060021A60AB6803F00C030C2B00F0ED
S31508001BA0BB802B6823F080732B602B689C0148BF91
S31508001BB04FF4FA6400F1A8806D4D704AE968704BDD
S31508001BC00A401343EB602B6843F080732B60EB6885
S31508001BD043F08073EB602B68980158BF4FF4FA64A2
S31508001BE003D509E0013C00F09E804FF47A70FEF7B9
S31508001BF038FB2B689B01F5D5624B1A6812070BD484
S31508001C001A6822F00F0242F008021A601B6803F0F5
S31508001C100F03082B40F08780554BDA68DB6802F023
S31508001C200302C3F30311032A01F1010100F0C48082
S31508001C30C3F306225448B0FBF1F101FB02F2534903
S31508001C40C3F3416301335B00B2FBF3F38B4206D95E
S31508001C50474A936823F0F00343F080039360444DAA
S31508001C60AB6843F00303AB60AB6803F00C030C2BC3
S31508001C700CD0474C01E0013C55D04FF47A70FEF782
S31508001C80F0FAAB6803F00C030C2BF4D1384B3D4D3E
S31508001C909A6842F4E0629A609A6842F460529A60DE
S31508001CA09A6822F0F0029A602B6803F00F03082B5B
S31508001CB017D92B6823F00F0343F008032B602B6812
S31508001CC003F00F03082B0CD0314C01E0013C2AD05D
S31508001CD04FF47A70FEF7C5FA2B6803F00F03082B4A
S31508001CE0F4D1234B9A6822F4E0629A609A6822F447
S31508001CF060529A60D3F8882022F440620020C3F824
S31508001D00882038BD013C0ED04FF47A70FEF7A9FA48
S31508001D102B689901F6D44FE7E9681E4B184A0B4021
S31508001D2093423FF469AF4FF0FF3038BD02F003022B
S31508001D30022A7FF4DEAEF2E623F48073C2F880301E
S31508001D401168154C154821F4C06141F40071116001
S31508001D502368322101FB03F35169A0FB03039B0CA3
S31508001D60490503F1010321D51BE000BF00700040BF
S31508001D7000100240006000407FBB22200C809F01BB
S31508001D8032550010002002400024F40000B4C404B8
S31508001D90404B4C00F37F60FE6422001083DE1B4339
S31508001DA023B151694D0503F1FF33F9D4064B5B693D
S31508001DB05C057FF594AEB6E7C3F306220348B0FB8D
S31508001DC0F1F101FB02F23AE70070004000127A00D6
S31508001DD01F4AD168936803F00C03042B10B41DD076
S31508001DE0082B19D00C2B1BD00023194A194C9168C3
S31508001DF00360C1F3022CC1F3C22114F80C20615C04
S31508001E005DF8044B02F01F0201F01F0123FA02F2EB
S31508001E10CB40C0E9012370470F4BE6E70F4BE4E7D9
S31508001E20D468C1F3031304F003045A1CC1F3062350
S31508001E30C1F34161032C01F101010CBF064C074CAB
S31508001E40B4FBF2F2490002FB03F3B3FBF1F3CCE770
S31508001E50001002403827000800127A000024F40017
S31508001E6030B54FF0E0240C4DD4F8883D0B4A43F4C6
S31508001E70700385B0C4F8883D2A60FFF721FE00B1DB
S31508001E80FEE701A8FFF7A4FF019A054B2A60C4F8EC
S31508001E90083D05B030BD00BF642200100024F400E0
S31508001EA0000000080000000000000000000000001C
S31508001EB00000000000000000000000000000000014
S31508001EC090F800F06DE9024520F007016FF0000C6C
S31508001ED010F0070491F820F040F049804FF0000414
S31508001EE06FF00700D1E9002391F840F000F10800EF
S31508001EF082FA4CF2A4FA8CF283FA4CF3A2FA8CF327
S31508001F004BBBD1E9022382FA4CF200F10800A4FA8D
S31508001F108CF283FA4CF3A2FA8CF3E3B9D1E90423E1
S31508001F2082FA4CF200F10800A4FA8CF283FA4CF318
S31508001F30A2FA8CF37BB9D1E9062301F1200182FAD2
S31508001F404CF200F10800A4FA8CF283FA4CF3A2FAD8
S31508001F508CF3002BC6D0002A04BF04301A4612BAE6
S31508001F60B2FA82F2FDE8024500EBD2007047D1E9E9
S31508001F70002304F00305C4F100004FEAC50514F078
S31508001F80040F91F840F00CFA05F562EA05021CBF49
S31508001F9063EA050362464FF00004A9E77BB972B904
S31508001FA00029BEBF00204FF0004106E008BF002808
S31508001FB01CBF6FF000414FF0FF3000F0BFB9ADF124
S31508001FC0080C6DE904CE002909DB002B1ADB00F0AA
S31508001FD04DF8DDF804E0DDE9022304B0704740421D
S31508001FE061EB4101002B1BDB00F040F8DDF804E053
S31508001FF0DDE9022304B0404261EB4101524263EB42
S3150800200043037047524263EB430300F02FF8DDF8B1
S3150800201004E0DDE9022304B0404261EB4101704768
S31508002020524263EB430300F021F8DDF804E0DDE9F2
S31508002030022304B0524263EB4303704753B94AB9CB
S31508002040002908BF00281CBF4FF0FF314FF0FF30B2
S3150800205000F074B9ADF1080C6DE904CE00F006F88D
S31508002060DDF804E0DDE9022304B070472DE9F04706
S31508002070089D04468E46002B4DD18A42944669D95E
S31508002080B2FA82F252B101FA02F3C2F1200120FA41
S3150800209001F10CFA02FC41EA030E94404FEA1C488F
S315080020A0210CBEFBF8F61FFA8CF708FB16E341EA8B
S315080020B0034306FB07F199420AD91CEB030306F111
S315080020C0FF3080F01F81994240F21C81023E634432
S315080020D05B1AA4B2B3FBF8F008FB103344EA0344D6
S315080020E000FB07F7A7420AD91CEB040400F1FF33EB
S315080020F080F00A81A74240F207816444023840EA28
S315080021000640E41B00261DB1D4400023C5E9004360
S315080021103146BDE8F0878B4209D9002D00F0EF80E3
S315080021200026C5E9000130463146BDE8F087B3FA16
S3150800213083F6002E4AD18B4202D3824200F2F980FE
S31508002140841A61EB030301209E46002DE0D0C5E901
S31508002150004EDDE702B9FFDEB2FA82F2002A40F04D
S315080021609280A1EB0C014FEA1C471FFA8CFE012650
S31508002170200CB1FBF7F307FB131140EA01410EFBF4
S3150800218003F0884208D91CEB010103F1FF3802D29B
S31508002190884200F2CB804346091AA4B2B1FBF7F095
S315080021A007FB101144EA01440EFB00FEA64508D9B8
S315080021B01CEB040400F1FF3102D2A64500F2BB80F5
S315080021C00846A4EB0E0440EA03409CE7C6F1200744
S315080021D0B34022FA07FC4CEA030C20FA07F401FA8A
S315080021E006F31C43F9404FEA1C4900FA06F3B1FB13
S315080021F0F9F8200C1FFA8CFE09FB181140EA014178
S3150800220008FB0EF0884202FA06F20BD91CEB010114
S3150800221008F1FF3A80F08880884240F28580A8F16C
S3150800222002086144091AA4B2B1FBF9F009FB1011BE
S3150800223044EA014100FB0EFE8E4508D91CEB01015C
S3150800224000F1FF346CD28E456AD90238614440EAFF
S315080022500840A0FB0294A1EB0E01A142C846A6467F
S3150800226056D353D05DB1B3EB080261EB0E0101FA08
S3150800227007F722FA06F3F1401F43C5E90071002665
S315080022803146BDE8F087C2F12003D8400CFA02FCBB
S3150800229021FA03F3914001434FEA1C471FFA8CFECB
S315080022A0B3FBF7F007FB10360B0C43EA064300FBBB
S315080022B00EF69E4204FA02F408D91CEB030300F159
S315080022C0FF382FD29E422DD9023863449B1B89B210
S315080022D0B3FBF7F607FB163341EA034106FB0EF399
S315080022E08B4208D91CEB010106F1FF3816D28B4246
S315080022F014D9023E6144C91A46EA004638E72E4612
S31508002300284605E70646E3E61846F8E64B45A9D209
S31508002310B9EB020864EB0C0E0138A3E74646EAE778
S31508002320204694E74046D1E7D0467BE7023B614426
S3150800233032E7304609E76444023842E7704700BF8F
S3150800234053746172742041646472657373203D200E
S315080023502530386C780A0000456E642020204164D8
S315080023606472657373203D202530386C780A000046
S31508002370456E7472792041646472657373203D20DA
S315080023802530386C780A00004572726F72203D203D
S31508002390253038780A00000053544D333247343715
S315080023A034204E75636C656F2D3634204D6F6E691B
S315080023B0746F722076312E30360D0A436F7079723B
S315080023C0696768742028432920313939392D323014
S315080023D030342043534520546F6D616B6F6D6169CE
S315080023E0204E43540D0A436F7079726967687420EA
S315080023F028432920323031362D3230323520544F99
S3150800240050504552532050524F4A4543542E002DA2
S315080024102D2D2D2D2D2D2D2D2D2D2D2D2D2D2D2DDE
S315080024202D2D2D2D2D2D2D2D2D2D2D2D2D2D2D2DCE
S315080024302D2D2D2D2D2D2D2D2D2D2D2D2D2D2D2DBE
S315080024402D2D2D2D2D2D2D2D2D2D2D2D2D2D2D2DAE
S315080024502D2D2D2D2D2D2D2D2D2D2D006C6420206F
S3150800246020202020202020202020206C6F6164203E
S3150800247070726F6772616D20202020202020202036
S31508002480207C20676F5B3C61643E5D202020202015
S315080024902020676F2070726F6772616D0064625BDF
S315080024A03C61643E5B3C6C6E3E5D5D2064756D70A0
S315080024B020627974652020202020202020202020DA
S315080024C020207C2064775B3C61643E5B3C6C6E3EFE
S315080024D05D5D2064756D7020776F726400646C5B57
S315080024E03C61643E5B3C6C6E3E5D5D2064756D7060
S315080024F0206C6F6E6720776F726420202020202062
S3150800250020207C2065625B3C61643E5D20202020A3
S31508002510202020656E74657220627974650065777F
S315080025205B3C61643E5B3C6C6E3E5D5D20656E7433
S31508002530657220776F7264202020202020202020BA
S315080025402020207C20656C5B3C61643E5D20202059
S3150800255020202020656E746572206C6F6E67207768
S315080025606F72640066625B3C61643E5B3C6C6E3E07
S315080025705B3C696E3E5B3C69633E5B3C72703E5DEC
S315080025805D5D5D5D2066696C6C2062797465003FEF
S3150800259020202020202020202020202020206865A0
S315080025A06C700000000000006C65776562656C64FD
S315080025B0776462646266646C6F67003F00000000BF
S315080025C009060008D10500089905000859080008F9
S315080025D04D07000841060008B50A0008E50200088C
S315080025E0A102000879020008257800002530386C19
S315080025F0783A253032783A002530386C783A2530E2
S31508002600386C783A000000002530386C783A253066
S3150800261034783A002530386C780000002530327856
S31508002620000000002530347800000000253032789C
S315080026300A00000030313233343536373839000075
S31508002640303132333435363738396162636465661A
S3150800265000000000303132333435363738394142DC
S3150800266043444546000000004E4D492045786365C1
S315080026707074696F6E206F63637572732E20210AFA
S315080026800000000048617264204661756C7420453C
S315080026907863657074696F6E206F63637572732EE5
S315080026A020210A004D656D6F7279204D616E616754
S315080026B0657220457863657074696F6E206F636311
S315080026C07572732E20210A00427573204661756C57
S315080026D07420457863657074696F6E206F636375DF
S315080026E072732E20210A00005573616765204661C2
S315080026F0756C7420457863657074696F6E206F63B6
S31508002700637572732E20210A000000004465627505
S3150800271067204D6F6E69746F7220457863657074B3
S31508002720696F6E206F63637572732E20210A00002D
S31508002730008000405B070A00000000000102030455
S315080027400000000000000000010203040607080953
S3090800275060220010E5
S70508000200F0
